:040000000040ACD43C
:20A00000D00800C0ACA8C452A0448BA4C2462BC692C5FFE1015DC544DF0192C75221620E78
:20A010005221616A5204FFE101465211FFE100C75220FFE100ADFFEF012452236106523DEE
:20A02000FFE1012CFFEF011D92C9601006468AA9DC0156BF7FC47700770024CC56BF18D4A9
:20A030008AA956BF03C4FFEF01338A442901DC0125CC0DD48AA61E48DC0156BF63C497CC26
:20A04000924896D42BDC8AA6D30356BF04C46F248A4692E46029D2006F0BA8A90DA38AA9F0
:20A05000B2A90DA21EA7DA01DB01DF0A26CC8A4492A354C4670492A2522068F083A17A412C
:20A060008AD10648DD0A7640B4F688A98A4606480DA21E487EE48A4492A354C468DA8A46FD
:20A0700092E4FFE100F58AD17640B2648A4696EC0AC4FFEF00ED92C9613C8A445CC4DC8120
:20A0800092A4520266285200BE00610B06440DA483A9DC8106A6FF3F0DCD1EA692A460F793
:20A0900092C9FFE100D58A4686A406A656BF02C4DA0156BF61C28AD17640B68D520096CA06
:20A0A000FFE100C68AD17640B26496D28A460AC4FFEF00BE06468AA9DC0156BF7FC488CD18
:20A0B0007ECC56BF15D48AA956BF03C4FFEF00B006468AA9DC0156BF7FC488CD7ECC56BF33
:20A0C00018D48AA956BF03C4FFEF00A28646DA0156BF60C28AD17640AB4952006007DA017E
:20A0D0008AD183A27640A9F56F048A4628D4FFFF8A4656BF02C4FFEF008B92C961548A445D
:20A0E00092C45201614692D4520161415202603406F1612406E161228AA97640AAA552005D
:20A0F00060068AF17640B252BE016F198AE183F17640ACEB8AF17640AD9B6F06BE026F0F16
:20A100008AF17640A8318AF17640B20C520061F98AF17640B22A520061F2BE0006468AA9AB
:20A11000DC0156BF51C4834480D57FCC7ED48AA956BF03C46F4C06468AA9DC0156BF51C41F
:20A1200088D57ECC8AA956BF02C46F412BC16F3F06468AA9DC0156BF51C42BCC8AA956BF5B
:20A1300002C46F3506468AA9DC0156BF7FC488CD7ECC56BF18D48AA956BF03C46F2806465F
:20A140008AA9DC0156BF7FC488CD7ECC56BF11D48AA956BF03C46F1B06468AA9DC0156BFF4
:20A150007FC488CD7ECC56BF12D48AA956BF03C46F0E864683A2DD01A0A9090256BF448585
:20A160001E428AD17640B25756BF03C2D00800C0ADE00006D00600C0ACA88F05D22E86A9B3
:20A17000D10040C4FFED00FB76228F05D20E18C4FFFD761A02177640B7708F45D2088F0567
:20A18000D232CCC5000388A9CCC4000280A9AAA90EA8FF5A92AB900327A992A7CAA688A95F
:20A190002BAAA9A90FA6611276228F05D20E18C4FFFE761A020C7640B770AAA99000910389
:20A1A0007640AA22020B7640B77076228F05D222CCC4FFC096C4761AAAA9900018A8C00077
:20A1B0001EA69A0028A880000FA6610F28A840000FA6610B06A6607D76228F05D20E18C41A
:20A1C000FFFE761AD1016F77AAA9AA469000917C2901FF35FF5A8F05D214924690FF9646E6
:20A1D0002B450646CAABCBAA1E46AAA9FF46FF5A18AB000018AA001F0646CAABCBAA1E4636
:20A1E00006C48B469B0090FFA3C418AB000018AA1F00CAABCBAAA3C418AB000018AA001F9A
:20A1F000CAABCBAA8F05D20E1EA6CCC4000180A9B2A90FA6600692A752016003D1016F3B92
:20A20000762218C4FFFE761A020C7640B770762229018F45D214AAA98F05D20EB2C5FF4752
:20A2100018A97C0091008F45D2161AC40001FF1A00011EA6CCC500018F05D2166F0519014B
:20A220001EA6CCC400015201610306A660F9761AAAA9900091031E42AAA990FF18A80FFCF9
:20A230001E44AAA9900018A830007640A27359A992A1613392A2FFC7903F5BA97622523F4F
:20A2400060088F05D222CCC4FFC0CAA396C46F098F05D2229A01CDC4FFC094A3CAA896C40A
:20A25000761AAAA92BAB28AA8000900018A8C0000FAB600776228F05D20E1AC40002761A36
:20A2600002287640B77076228F05D222CCC4FFC0CAA396C4761A6F02762592A1D006FF6994
:20A2700000C0ADE00006B2BDAABDE20304BDE20305BDE20306BDFE02C55086A9C45206A7A9
:20A28000610F8F010000A8A90FA761088F030000A8A90FA76103D1016F04D1006F02D102F7
:20A29000AAA96108FF2F20000FA260068D85E7406F038D85E70006A628AC00175622FF5A81
:20A2A0002BAA92AB28AC0012901F27A9A9A90901FF5A06A656229B00901F09011EAC06A684
:20A2B0009B0090FF566500ABBDAB0F16BDA90F12770077007700E68B000EE68B0005E6CFDB
:20A2C0000031E6CF00287640A760E6CF0004E811FC04AD14631FE6CF0030E6CF0029764045
:20A2D000A760E85020007700E89030007700E68A000077007700BFA60F1202641EAC06A6B9
:20A2E000560500A6FF30A9A7565D00A6A9A41EA66F078F0003E8C5A4BE148F0003DEBDA775
:20A2F0000F127700770077007700E68B00007700E70000208F45E700E68A0000A0A90FA23D
:20A30000BFA70F12610E8F45E740A0A90FA26010762202028F45D34C98C599CD761A6F0889
:20A31000762202018F45D34C98C599CD761A762283A2DD141AC5000183A2D028DD141AC5D1
:20A320000002CCC2FFF0500596C2CCC2FF1F505096C2CCC20FFF1AA9500096C2CC920FE0F9
:20A33000CAA1D0281AA9A000D1089692D024CC920FE0D0241AA9A0009692D00A7C9AD112B3
:20A34000CC92FFF027A9D00AA8A9910FCBAB9792D00C7E92D0107F92CC9AFFF088A9D01231
:20A3500006A7910FCBA69792CCC2F8FF1AA90A0096C2CCC2FFF8500A96C2761AD01492928D
:20A36000900361FDD0149A0093929103530260029A01FE82E2AF06BEE2AF05BEE2AF04BEE7
:20A3700086BE8BBE0006FF5A762292C4520262095202613C5200FFE100825201615C6F050B
:20A380005203610E5264610376256F008F407200761F174CA0D41A300001FFEF009376C026
:20A39000720076807C00761F174CC3D483A6D0081A300001761F01F0DD0D18C5FFFD180D80
:20A3A000FFFE1AE6000CCC96FFFB5008D0229608CC08FFFE50029608CC96FFF7500496222B
:20A3B000CC22FFFC500196226F6C76C0720076807C00761F174CC3D483A61A300001D021B2
:20A3C000761F01F0DD0C18C5FDFF180CFEFF1ADE000CCCFEFFFB50089607CC07FFFE500235
:20A3D0009607CC96FFF750049621CC21FFFC500196216F478D00720076C07C00761F174C1E
:20A3E0003AD4C4A783A71A300001D023761F01F0DE0DDD0918C6FDFF180DFEFF1AEF000C14
:20A3F0001AC5000C1A090003CC97FFFB50089623CC23FFFE500296236F2476C072008F40CD
:20A400007C00761F174CC3D4C4A5D0091A300001761F01F0DE0D18C6EFFF180DDFFF1AED5D
:20A410000300CC95FDFF1AA90100DD239609CC09F7FF1AA90400960918C5FCFF1823F3FF33
:20A4200083D42BCD83D456BF07C583D42901A9A656BF13CD06E4FF4283D4FF5A0200F61FDE
:20A43000561700A692AB9CFF93A9FFD797D583D490FF96DD020A07D483A9020B28C5C0007D
:20A4400007D483A9020C2BC507D483A92BC583D4020A56BF33CD07D483A9020B1AC5200075
:20A4500007D48AA91AC42000761A9A010006D00400C0ACA8864E8BA42BC292C5FFE100A3FD
:20A46000C5A5DF0192C75203617E5210FFE10094523E6165D00993915301615D5223610EE6
:20A470008AA2DC0156BF7FC47700770024CC56BF11D456BF03C2FFEF00868AA52901DC010F
:20A4800025CC0DD48AA2D3031E44DC0156BF63C497CC924496D42BDC56BF04C22BAA6F2480
:20A49000D02A06440F91681ED02C0DA60F91661A92A6D0006119B2A90DA0090A1EA78A4443
:20A4A00092C727A996C40EC70FAB60090644D80109011E4492A654A066EF6F0656BF03E2A2
:20A4B0006F0356BF02E292A354C5674C92E2604ABE0092A354C567D592A6522067D2A0A98E
:20A4C0000DA38AA9B2A90DA61EA7DB01DE01DF0A26CC6FF0AA427640A0006F34D00856BFFF
:20A4D00001C19B009291520060029B01D009979106F161048AA97640B25256BF7ECA56BFE0
:20A4E00001C26F208AD1DD029A087640B26C5200600856BF01C98AD17640A8799A006F0383
:20A4F0002BC99A108AA2DC0156BF43C496CC56BF02C26F08D00956BF019156BF50CA56BF13
:20A5000001C2D00400C0ADE00006B2BDAABDFE045DAD761F00128A0ADD835DA57640ABD79A
:20A510005200611C761F001292438A047640ADA95DAD761F0012DD838A0A5DA57640ABD767
:20A52000520060F1761F00128A047640ADF3520060FA761F02DE56BF142F761F00120612B5
:20A530000F106116761F02DE922F6068761F00128A0406127640A373761F001206121E1071
:20A540006F07761F001292438A087640AB935DAD761F00128A04DD835DA57640AD2A520003
:20A5500060F1761F00128A0E7640A6D05DAD761F0012DD848A0E5DA57640B0BB5200613E71
:20A560008F00C000761F0012A8428F40C00192448A0E7640A9688D80C0008D4004C08AA2AC
:20A5700083A17640AACF5200601E8AA27640A5A15200601992446022761F00132B00B24296
:20A58000761F001283A28A0C7640A457761F001392009B008F4004C1761F00128A0E76404A
:20A59000AA4F6F0C761F001392008F4004C19344761F00128A0E7640AA4FFE8486BE8BBE95
:20A5A0000006D00200C0ACA88BA586A42BC192C2FFE1008E92CA5203614A52046105520538
:20A5B0006117FFEF00858AA1761F1740DC0156BF44C42BCC2BD4060A97DC060A96E4060C7A
:20A5C00097EC060C96F49A0156BF07C16F71DA01761F001292CA96015CD27C00761F17C178
:20A5D00006327640ABB7761F001293019105610250019301910A61025002761F17C0CD0277
:20A5E00000F0FFD3530F61025008761F17C1CD0200F0FFD3530F610250108AA1DC0156BF3C
:20A5F00045C496CC9A0156BF02C16F42761F00125C00761F17C106327640ABB7761F001255
:20A600005BA940016C0350015BA941016C0350025BA993A39A0091055300610C92A383A2AA
:20A61000FFC18A029B08900196419A01DD027640B5D15200601393A39106610E92A3761F52
:20A620000012FFC183A29B0890018A0296419A02DD027640B5D15200610A8AA1DC0156BFFB
:20A6300043C496CC9A0156BF02C16F029A00D00200C0ADE00006B2BDAABDFE027640ADC401
:20A6400076BFFFFFD5003B018F000400A8A981A58AA9DD0192A670C488A992A5520F64F50D
:20A6500092A6761F0010540F607A290125030D027640AB222901761F001025070D068BA9AA
:20A6600076228F05D22C06C418A9FFF8910050021EC4761A8F0004B0B2A9FF4186A9020EBC
:20A670007640AD17761F001202001E42A802B2A97640B26A7640A8BDBDA10F1277007700E8
:20A68000E8024BA1E8092001E68B00007640A760E80216418F0006427640ABF6761F003070
:20A690001804FFEF2901761F01C89203380293A99A01761F001294A888A9B2A9FF44D100EF
:20A6A000FF5A0200F61F561700A6A912761F0010920C6104CC0C00FF59A902068F000494AC
:20A6B0007640B236761F00125DA1AAA9A8047640B267761F00128A0406127640A373761FCB
:20A6C000001206121E107640A7E8761F00122B002B017640AD7D7640A5056FFC76256F002A
:20A6D000B2BDAABDFE0286A46F3A8AD29AFF7640AB939AFD8AD27640AB938AA27640AD5E04
:20A6E0006F2E8AA29AFF7640A8FC2BE26F288AA292417640A8FC8AA2D036DC360BC492926A
:20A6F000601ED033929260098AA29A03D037DC3174C456BF01926F138AD29AFF7640AB9314
:20A700009AFD8AD27640AB936F0A924152FF61058AA27640A8FC6F0356BF01E25DAD8AC209
:20A71000DD815DA57640ABD752006147D03792926044D036929260CC92E2520160E7924191
:20A7200052FF61C052F461BAD033929260AF924152FE611452F3610352F660B052FE610EB8
:20A730008AA29A04D031C5A2DC3174C45892D12E8A9ADF35D80126946F078AA2D0359A039A
:20A740002B92DC3174C4D135D038929A54926896D03954926693924152F66105D03756BF54
:20A7500001926F0BD02E8A92D036560308C494CC96928AA27640AD5EFE8286BE8BBE00060F
:20A760003ABDB2BDAABDA2BDFE022901BFA90F12FF58615B5CA8917F08A800801E4293A40C
:20A77000FFD65CA8BFA90F1661675DA8917F08A8008059A858A993A5FFD65DA893A471A5F5
:20A7800018A8010097A618A400FF18A500FFDC7F92A49EA596A7644D08A9FF01623E93A1FD
:20A7900092A0FF3659A858A90642FF35F60E1FA15BA901A3F60A1FA1562D04A22DA336A0C9
:20A7A000FF40F60B1FA1FF339B00FF30FF540CA295A3FF4008A70001F61FFF770920FF4082
:20A7B00008A70001F61FFF77FF5A92A7652208A9FF016313A9A9FF46917F5BA85AA925A696
:20A7C00095A7FF960CA295A3BDA90F12FE8282BE86BE8BBE8EBE00069B00FF5708A8FF7F7D
:20A7D000FF5A93A660F228A8800071AA92AB6FEDFF2000006FEAFF5A93A418A80100FF9623
:20A7E0005CA8A9A908A8FF7F1CA88000CBA46FDDB2BDFE0402088F0004A07640B204761F27
:20A7F00000120208A8088F0004A87640B204761F00129A648F40057AA80A8A087640B248EF
:20A80000761F00129A648F4005DE8A0A7640B248023A8F0005407640AC8B761F0012060AE9
:20A81000A80E83081E427640B260D12E761F00128A0E8F40C204D030022EA09C2894040CB4
:20A820008F0005007640ACBD761F0012BE000200A80C8302C2421E447640B230FE848BBEFC
:20A830000006B2BD8BA492C15201613E520261265203603E06D10FF16809D0080691602416
:20A84000D00A56BF04C12B916F330201564100F18AF1D00892C4FFC75CA906917640AD3CB1
:20A85000D0081E918AF1D008CCC400FF5CA906917640AD3CD0081E916F1B8AF192C4610DF4
:20A86000A8A90FD16606D00A56BF05C12B916F100201564100F16F0C0200D00819011E91A2
:20A8700056BF03C16F0506E11EF156BF02C18BBE0006FE028F4F4240A3C40200F61F561713
:20A8800000A592AB52646636761F1748930891036112930891035302610E93089103530376
:20A89000610A5250661A523C6616522866125214690C6F0D52616613524D660F523A660B8B
:20A8A0005226660752136603D4006F0AD4016F08D4026F06D4036F04D4046F02D40576859A
:20A8B000FB008F45F800C242A0A97640B7319A006F0376256F00FE8200060200761F003073
:20A8C0008F000C0019011E02761F00198F400C100200A802761F00302B0619012B071AE41E
:20A8D00000101A040020761F00308F000C081E0A761F0030020019011E12761F00300200B2
:20A8E0002B0E2B0F761F0019A80AA0121E04761F00302B162B17761F00301AE400101AE597
:20A8F00000101A0C0020761F00301A140020761F00191E141E0C0006B2BDAABD86A4D033CC
:20A90000809293A7FFD758A8F2A088A993A0FFD358A88F40B794D133560304A77095D03323
:20A91000969A809293A6910F58A892A7FFCBF2A0D133560304A77095D031969AD12E589250
:20A92000839ADC31D1317E95D0300AC49292549A660C8AA27640AD5E9AFF8AD27640AB93B0
:20A930009AFC8AD27640AB9386BE8BBE0006AABD2F842BAB6F18A0A901A019011EA7DE81EF
:20A9400058870200DE81190178850FA660FA6F039284968592AAFFC02FA992AB9C0127A971
:20A95000521063E740AA6DF59284CDA9000F9D02FFC388A858A95311600406A60D841EA6F9
:20A960005AA076C00FFF06A70FA260D686BE0006D00200C0ACA882A496418BA5864C764020
:20A97000A6D0D0379341C5A192935200610688A8D0350E930FA661039A006F16D12E56BF10
:20A9800001C28A9BD031589326946F067640AD0158C296970AC28AA37640B0B1520060F750
:20A990007640AD5E9A01D00200C0ADE0000600C0ACA452FF86A45BA960058AD29AFF764087
:20A9A000AB93D034939292A8FFC758A992A3F2A092A0FFC358A98F00B794D134560304A88F
:20A9B0007094D034969A889292A3900F58A993A6FFDBF3A0D134560304A67094969A92A349
:20A9C0008AD27640AB9300C0ADDC000676228F05D23A1AC40007F60577008F45D2328F05DD
:20A9D000D23218C5FFFE18C4FFFD761AFF697640AC3476228F05D208CCC4FFFC500196C4E7
:20A9E000761A6F0F76221AC40002761A7640AC3476228F05D208CCC4FFFC500196C4761ADF
:20A9F0008F05D22E40C46DEF0006B2BDFE0C5CAD8BA5DC8C88A4767F8EC2804C9B0A274BDF
:20AA000092A77640AE0328AA000A88A90EA7F60F1FAA560304A994A6560304A988A9B60ACF
:20AA10000EABF60F1FA794A6560304A980A99B0A92AB7640AE0393A795A99A00FE8C97C1FC
:20AA20008BBE00067622FF581EA6611D8F010000A8A90FA661158F020000A8A90FA6610989
:20AA30008F030000A8A90FA660187640AC6F6F158F05D208CCC4FFFE500296C46F0E7640C7
:20AA4000A9C66F0B8F05D20818C4FFF7F6FA7700F632770018C4FFFC761AFF690006D00220
:20AA500000C0ACA882A459A886A58AD396419AF47640AB939AFF8AD37640AB939AF48AD3F5
:20AA60007640AB937942924161115201D1016909929A8AA37640AD8CD901924154A166F902
:20AA700092C28AA393427640AB6E9A01D00200C0ADE00006B2BD8F00B7F2AABDA8A9A2BD23
:20AA80008DC0B7EC0FA3611C8F00B8108D40B800A8A90FA1611503A13B01FF41190186A9DB
:20AA90008A813B019284560301A907A383A9C5C583813E67DA81020019010FA260F276400D
:20AAA000B27082BE86BE8BBE0006B2BD83C4290128AB555528AAAAAA25CD0DC50FAB60063A
:20AAB000BE0125DD0DD50FA66103BE006F1625ED0DE51ED483C425FD0DF51EE483C4D10903
:20AAC000D008259D0D951EF483C4D10BD00ABE01259DD1080D951E9C8BBE92A600062BC5FE
:20AAD00092C46126DC0192C452016104522661166F1F2901761F0012C4A525CC1E120ED4E4
:20AAE000DE015601001256BF41C692CC96CE92D496D69A0156BF03C56F0C8AA59A01DC01C4
:20AAF00056BF66C428CC020356BF02C56F029A00000677006F00B2BD761F02DE59A992249F
:20AB0000610D28ABFFFF28AAFFFF28A9FFFF28A8FFFF0FAB6103767FFFFF761F02DEC52A14
:20AB10003E67761F02DE062861041EA792A13E67761F02DE062661031EA73E677640AAF913
:20AB20008BBE00061EA77622F5A970295068F4A97029761A3B1076260000762F0000FF69C0
:20AB30007640AC157640AD4D76223100761F01F0BE000200A93C761F01F1C23C761F01F7D8
:20AB40001E3C761A06A77640A16A76C702283E670006B2BDAABD76228F4F42400200A3C454
:20AB5000F61F561700A559AB7640B21C5AA98F05F8000EA1767F8EC459A9520060059A005E
:20AB6000767F8EC659A992A27640B220761A9A0093A161029A0186BE8BBE0006B2BDAABD09
:20AB700059A886A47640A99792A161048AA27640A997D0348AA292927640AD8C9AFF8AD2B2
:20AB80007640AB9392A160068AD29AFE7640AB936F058AD29AF37640AB93D0342892FFFF33
:20AB900086BE8BBE0006B2BDAABD86A488D259A90EDA0FA660097640B21C56BF01E276407E
:20ABA000B2209A006F127640B21C58CA8AF279940ACA80CA88A90EDA0FA760022BCA0AD259
:20ABB00092A67640B2209A0186BE8BBE0006BE001EA729016F1940A46C1192A790036003D2
:20ABC0009A046F15520161075202600892A6500288A96F0492A6500188A992A4FFC05CA9FA
:20ABD00006A7FF411EA792A460E792A60006B2BD8BA4AABD86A592D160039A006F1576402E
:20ABE000B21C58C1C5A28AF12694770077000AC180C188A90ED90FA760022BC10BD192A6A8
:20ABF0007640B2209A0186BE8BBE0006E00050E4E20301F4E688001083C4E20300D583C4DB
:20AC00002BF583C42BFD83C41AE5001083C41AE5002083C418E5FBFF83C418E5F7FF83C42A
:20AC100002001AE540001ED400063B10761F00331820FFFE2B222B24FF692B262B282B2AA6
:20AC20002B2C2B2E2B302B322B342B362B382B232B252B272B292B2B2B2D2B2F2B312B3383
:20AC30002B352B372B3900068F0007D0A8A97640B770BE008F45D2306F068F05D23006C4DB
:20AC400051011EC48F0001FFA8A90FC568F78F05D23028A907FF54C460FDDE0192A652045E
:20AC500068F200065200A8ABC5A4610788A9DE815C857C87000EFFFE88A90FA6610F5300E6
:20AC6000610D9DFF5CA876BFFFFE92859687000EFFFE92859687000CFFF8A9A40006762233
:20AC70008F45D2328F05D23218C5FFFE1AC40002761A7640AC3476228F05D208CCC4FFFCE3
:20AC8000500196C4761A8F05D22E6F02762540C46DFEFF6900061EA6023AB2BD0FA669036C
:20AC9000D4006F11D0382B94A8A9D039D13656BFFF940905D02E1E94D03056BF29942B9C29
:20ACA0007640AD5E8BBE0006B2BDAABDA2BD7620B2BDAABDA2BD27AD565700A03FAD7620E1
:20ACB000B2BDAABDA2BD5AAD27AD565700A03FADAAAB565D00A6A9A276201EA6022EB2BD49
:20ACC0000FA66903D4006F0F2BC4D00802002BCCD12CBE002B941901D00956BF0194D02A30
:20ACD0001E94C29C8BBE000628AD065AFF69561F5616561AE61002002940761F00002902F6
:20ACE000761B7640B26E520061037640AA7A7640ADD07640AAFBFE02C5A57640AAA552000E
:20ACF000600802008AA7D5001E427640B25C6F08D00806941E4283F48AA77640B25CFE827B
:20AD00000006B2BDD03258949A01D13294A0969CD12E839CD132599C560308959B01D03222
:20AD100095A19794D02E8A94949C8BBE00061EA6020EB2BD0FA66903D4006F0B0200B600BD
:20AD2000D108BE00D00C19011EE4C3F4C29C2B948BBE0006C4D4C5A547EE6C057640ADE86E
:20AD30009A006F0A8AD4D00BCC941F00610426FC9A016F029A00000680A41EA692A7FFC322
:20AD4000900F5CA906A67640AD6E1EA6CCA7000F5CA906A67640AD6E00068F000D067622CA
:20AD50009A008F40B04DC4C59C0152DDC28468FC761A761F00331A2000010006B2BDD0376F
:20AD60002B94D134D0312BE42B94D0322B94D0332894FFFF289CFFFF8BBE00061EA628AC19
:20AD7000001C8F40B7745622FF30560100A506A6FF33AFA470C571CD0006761F00304F0448
:20AD80006C0B1A048000761F02DE1B2EFFFE67020A2E7640B23C0006B2BD59A9AABDFFC7FA
:20AD900086A47640A997CCA100FF8AA27640A99786BE8BBE000606E40FD46107D00A56BF3E
:20ADA00001C456BF01946F05D00A56BF04C42B94000688A9020A07D483A9CDC51F00FFD769
:20ADB000531063F9020907D48AA97EC40006761BFFF0E20000BDE630060029425616E280EF
:20ADC00000BEFFF176177602FE027622761F01C092299007964150689629761AFE8200061C
:20ADD0008F000000A8A960049A00D4006F0392C4DC027640A63B000682BE86BE8BBE76200B
:20ADE00027AD565D00A03FAD82BE86BE8BBE7620762283D42BCD83D456BF13CD8AD456BF37
:20ADF00033CC761A0006020A07D48AA99A00CDC41F00FFD7530061029A01000697A69B0045
:20AE0000F60F1FA6000697A69B00F60F1FA692A80006761BFFF0E20000BDE63006002942DA
:20AE1000561676256F00761BFFF0E20000BDE63006002942561676256F00761BFFF0E2002E
:20AE200000BDE63006002942561676256F00761BFFF0E20000BDE6300600294256167625AB
:20AE30006F00761BFFF0E20000BDE63006002942561676256F00761BFFF0E20000BDE63042
:20AE400006002942561676256F00761BFFF0E20000BDE63006002942561676256F00761B5E
:20AE5000FFF0E20000BDE63006002942561676256F00761BFFF0E20000BDE63006002942B1
:20AE6000561676256F00761BFFF0E20000BDE63006002942561676256F00761BFFF0E200DE
:20AE700000BDE63006002942561676256F00761BFFF0E20000BDE63006002942561676255B
:20AE80006F00761BFFF0E20000BDE63006002942561676256F00761BFFF0E20000BDE630F2
:20AE900006002942561676256F00761BFFF0E20000BDE63006002942561676256F00761B0E
:20AEA000FFF0E20000BDE63006002942561676256F00761BFFF0E20000BDE6300600294261
:20AEB000561676256F00761BFFF0E20000BDE63006002942561676256F00761BFFF0E2008E
:20AEC00000BDE63006002942561676256F00761BFFF0E20000BDE63006002942561676250B
:20AED0006F00761BFFF0E20000BDE63006002942561676256F00761BFFF0E20000BDE630A2
:20AEE00006002942561676256F00761BFFF0E20000BDE63006002942561676256F00761BBE
:20AEF000FFF0E20000BDE63006002942561676256F00761BFFF0E20000BDE6300600294211
:20AF0000561676256F00761BFFF0E20000BDE63006002942561676256F00761BFFF0E2003D
:20AF100000BDE63006002942561676256F00761BFFF0E20000BDE6300600294256167625BA
:20AF20006F00761BFFF0E20000BDE63006002942561676256F00761BFFF0E20000BDE63051
:20AF300006002942561676256F00761BFFF0E20000BDE63006002942561676256F00761B6D
:20AF4000FFF0E20000BDE63006002942561676256F00761BFFF0E20000BDE63006002942C0
:20AF5000561676256F00761BFFF0E20000BDE63006002942561676256F00761BFFF0E200ED
:20AF600000BDE63006002942561676256F00761BFFF0E20000BDE63006002942561676256A
:20AF70006F00761BFFF0E20000BDE63006002942561676256F00761BFFF0E20000BDE63001
:20AF800006002942561676256F00761BFFF0E20000BDE63006002942561676256F00761B1D
:20AF9000FFF0E20000BDE63006002942561676256F00761BFFF0E20000BDE6300600294270
:20AFA000561676256F00761BFFF0E20000BDE63006002942561676256F00761BFFF0E2009D
:20AFB00000BDE63006002942561676256F00761BFFF0E20000BDE63006002942561676251A
:20AFC0006F00761BFFF0E20000BDE63006002942561676256F00761BFFF0E20000BDE630B1
:20AFD00006002942561676256F00761BFFF0E20000BDE63006002942561676256F00761BCD
:20AFE000FFF0E20000BDE63006002942561676256F00761BFFF0E20000BDE6300600294220
:20AFF000561676256F00761BFFF0E20000BDE63006002942561676256F00761BFFF0E2004D
:20B0000000BDE63006002942561676256F00761BFFF0E20000BDE6300600294256167625C9
:20B010006F00761BFFF0E20000BDE63006002942561676256F00761BFFF0E20000BDE63060
:20B0200006002942561676256F00761BFFF0E20000BDE63006002942561676256F00761B7C
:20B03000FFF0E20000BDE63006002942561676256F00761BFFF0E20000BDE63006002942CF
:20B04000561676256F00761BFFF0E20000BDE63006002942561676256F00761BFFF0E200FC
:20B0500000BDE63006002942561676256F00761BFFF0E20000BDE630060029425616762579
:20B060006F00761BFFF0E20000BDE63006002942561676256F00761BFFF0E20000BDE63010
:20B0700006002942561676256F00761BFFF0E20000BDE63006002942561676256F00761B2C
:20B08000FFF0E20000BDE63006002942561676256F00761BFFF0E20000BDE630060029427F
:20B09000561676256F00761BFFF0E20000BDE63006002942561676256F00761BFFF0E200AC
:20B0A00000BDE63006002942561676256F00761BFFF0E20000BDE630060029425616762529
:20B0B0006F00B2BDD0319A00D1329394559C69029A018BBE0006D0379294C5A56105D03595
:20B0C0009A0126946F029A000006761BFFF0E20000BDE63006002942561676256F00761B5D
:20B0D000FFF0E20000BDE63006002942561676256F00761BFFF0E20000BDE630060029422F
:20B0E000561676256F00761BFFF0E20000BDE63006002942561676256F00761BFFF0E2005C
:20B0F00000BDE63006002942561676256F00761BFFF0E20000BDE6300600294256167625D9
:20B100006F00761BFFF0E20000BDE63006002942561676256F00761BFFF0E20000BDE6306F
:20B1100006002942561676256F00761BFFF0E20000BDE63006002942561676256F00761B8B
:20B12000FFF0E20000BDE63006002942561676256F00761BFFF0E20000BDE63006002942DE
:20B13000561676256F00761BFFF0E20000BDE63006002942561676256F00761BFFF0E2000B
:20B1400000BDE63006002942561676256F00761BFFF0E20000BDE630060029425616762588
:20B150006F00761BFFF0E20000BDE63006002942561676256F00761BFFF0E20000BDE6301F
:20B1600006002942561676256F00761BFFF0E20000BDE63006002942561676256F00761B3B
:20B17000FFF0E20000BDE63006002942561676256F00761BFFF0E20000BDE630060029428E
:20B18000561676256F00761BFFF0E20000BDE63006002942561676256F00761BFFF0E200BB
:20B1900000BDE63006002942561676256F00761BFFF0E20000BDE630060029425616762538
:20B1A0006F00761BFFF0E20000BDE63006002942561676256F00761BFFF0E20000BDE630CF
:20B1B00006002942561676256F00761BFFF0E20000BDE63006002942561676256F00761BEB
:20B1C000FFF0E20000BDE63006002942561676256F00761BFFF0E20000BDE630060029423E
:20B1D000561676256F00761BFFF0E20000BDE63006002942561676256F00761BFFF0E2006B
:20B1E00000BDE63006002942561676256F00761BFFF0E20000BDE6300600294256167625E8
:20B1F0006F00761BFFF0E20000BDE63006002942561676256F00761F02DEA82C0006761FD0
:20B2000002DEA82A000600061EA602080FA66903D4006F022BDC000693C49A015304610481
:20B21000530561029A000006C4A583A406CD8AA6DD037640AC52000676083B3092BE000657
:20B2200096BD76000006FF58C4A4610419017D8660FE000693C49A00530460029A0100064F
:20B23000C4460644A0D41EE4C2F400061EA602060FA66902D4000006761F02DE922F610219
:20B240000B2F000606CC8AA5D5007640B2230006A0F496DC7640B24D00062BC42BCC2BD4A1
:20B250002BE40006D00A56BF05C42B9400068A442BC59A002BC400060644A0D41EE4000639
:20B260000644A0C41ED40006D00C929400067DC41EE400061EC400069A0000069A010006AE
:02B270000006D6
:20B28000B09D0000B09D0000B09D0000B09D0000B09D0000B09D0000B09D0000B09D000046
:20B29000B09D0000B09D0000B09D0000B09D0000B09D0000B1330000B13D0000AE9F0000FE
:20B2A000B0D90000AF210000B07F0000B0430000B1650000B16F0000B1790000B18300007F
:20B2B000B18D0000B1970000B1A10000B1AB0000B1B50000B1470000B1510000B15B0000DE
:20B2C000AE090000B09D0000AE3B0000B1C90000B1D30000B09D0000B1290000B1BF0000EC
:20B2D000AF350000AF490000AF5D0000AF710000AF850000AF990000AFAD0000B09D000031
:20B2E000AF2B0000AF3F0000AF530000AF670000AF7B0000AF8F0000AFA30000B09D000067
:20B2F000AEF90000AF030000AF170000B09D0000B09D0000B09D0000B09D0000B09D00009E
:20B30000AFB70000AFC10000B09D0000B09D0000AE8B0000AE950000B09D0000B09D0000A7
:20B31000B0F70000B1010000B10B0000B1150000B09D0000B09D0000B09D0000B09D00000E
:20B32000AEBD0000AEC70000AED10000AEDB0000AEE50000AEEF0000B09D0000B09D00005B
:20B33000B0250000B01B0000B0390000B02F0000B09D0000B09D0000B09D0000B09D000061
:20B34000B0E30000B0ED0000B09D0000B09D0000AE770000AE810000B09D0000B09D000035
:20B35000AE310000AE130000AE1D0000AE270000B09D0000B09D0000B09D0000B09D000069
:20B36000B09D0000B09D0000B09D0000B09D0000B09D0000B09D0000B09D0000B09D000065
:20B37000B1DD0000B1E70000B1F10000B0930000B09D0000B09D0000AFD50000AFDF000006
:20B38000B09D0000B09D0000B09D0000B09D0000B09D0000B09D0000B09D0000B09D000045
:20B39000B09D0000B09D0000B09D0000B09D0000B09D0000B09D0000B09D0000B09D000035
:20B3A000B09D0000B09D0000B09D0000B09D0000B09D0000B09D0000B09D0000B09D000025
:20B3B000B09D0000B09D0000AF0D0000B09D0000B09D0000B09D0000B09D0000B09D0000A6
:20B3C000B09D0000B09D0000B09D0000B09D0000B09D0000B09D0000B09D0000B09D000005
:20B3D000B09D0000B09D0000B09D0000B09D0000B09D0000B09D0000B09D0000B09D0000F5
:20B3E000B09D0000B09D0000AFFD0000B0070000AFE90000AFF30000B09D0000AEA9000072
:20B3F000B0570000B0610000B06B0000B0750000B0A70000B09D0000B09D0000AEB3000093
:20B40000B09D0000B09D0000B09D0000B09D0000AE6D0000B09D0000B09D0000B011000082
:20B41000AE630000AE450000AE4F0000AE590000B09D0000B09D0000B09D0000B09D0000E0
:20B42000B09D0000B09D0000B09D0000B09D0000B09D0000B09D0000B09D0000B09D0000A4
:20B43000B09D0000B0CF0000AFCB0000B0C50000B11F0000B09D0000B09D0000B09D00008A
:20B44000FFFFE3FFFFFF977FFFFFF1FFFFFF9B7FFFFF5B7FFFFF2FFFFFFF1FFFFFFF6B7FEA
:20B45000FFFFAB7FFFFF37FFFFFF4F7FFFFF3BFFFFFFE5FFFFFF8F7FFFFF2FFFFFFF5B7F8A
:20B46000FFFF9B7FFFFFF1FFFFFF977FFFFFE3FFFFFFCBFFFFFF577FFFFF8F7FFFFFE5FF48
:20B47000FFFF3BFFFFFF4F7FFFFF37FFFFFFAB7FFFFF6B7FFFFF1FFFFFFF47FFFFFFDB7FBC
:20B48000FFFF4BFFFFFF3F7FFFFFCFBFFFFF8BFFFFFF53FFFFFFCF7FFFFFE77FFFFF93FF04
:20B49000FFFFEB7FFFFF69FFFFFFA9FFFFFFDD7FFFFF8BFFFFFFCFBFFFFF3F7FFFFF4BFFB6
:20B4A000FFFFDB7FFFFF47FFFFFF87FFFFFFF37FFFFFDD7FFFFFA9FFFFFF69FFFFFFEB7F2E
:20B4B000FFFF93FFFFFFE77FFFFFCF7F000000081000000820000008300000084000000874
:20B4C0005000000860000008700000088000000890000008A0000008B0000008C0000008EC
:20B4D000D0000008E0000008F000000808000000080000000800000008000000080000007C
:20B4E00008000000080000000800000008000000080000000800000008000000080000000C
:0CB4F00008000000080000000800000038
:20B4F600D00A00C0ACA888531EA782A5A84892A67E44FFE100BB9007600606A79B00900720
:20B50600FF5861049B04FFEF00C306A70FF467070DA60FE468049B06FFEF00BA2B45762298
:20B51600D200C34AFFEF009992449EA259A952086902D108C54A8F080000A8A90FA769548F
:20B526008F078200A8A90FA7660606A7FF0903C1FF5A6F0506A7FF0F000FFF5AA9A9284651
:20B536000001611102080FAB610D020C2B460FAB610A02100FAB610702180FAB6004D1046B
:20B546006F66D104D5002BAC3B012BAA6F1806A758A281A58AA993A573A088C45C930EA6BD
:20B5560027A40FAB610B92A6CEA488A928AC0001A9A90FA661039A0D6F48DD0192A154A561
:20B5660066E792AC61449246600F06A72901FF0F000EFF42FF1F020E83A988C58F00FFFFE6
:20B57600A8A90FA660319A0060327640B21C9645BE008A4AA2A90DA2C24283A92B4392A136
:20B586009B00767F8ECC934597469645767F8ED8520161FD92456014767F8EDAFF58600EB2
:20B5960058A28A4A6F03DC01D80192A194A254A0690788C40E930FA661F7284501F492469E
:20B5A6007640B2206F049A0C93A96F2192A172A2064A0DA11E4A924454A269049245FFE17B
:20B5B600FF65761A924560039B006F11767F8EDAFF586108767F8EDA8A48D00C9B0B969434
:20B5C6006F068A48D00C92459B09969492A8D00A00C0ADE00006D00C00C0ACA859A99CFFA9
:20B5D6005B5586A55202FFE700AD5308FFE000A85CAD5DAD92A1DC82DD845CA45DA57640F4
:20B5E600B6FA761F17E6CC000002FFC080A976221800FFFD761AF6077700020807428AA917
:20B5F600C4C4020A07428AA9C246C4C4020C07428AA9C248C4C4020E07428AA9C24A06C417
:20B606001E4C7622CC00FFFD88A9560301A79003CAA69600761AF607770092A152016004A1
:20B616008F05F0196F038F05F05946C46C6843C46D6645C46D6292A35201601D762292A1C8
:20B626005201610C0646761F17C11E1006481E12064A1E14064C1E166F0B0646761F17C0A5
:20B636001E1006481E12064A1E14064C1E16761A45C46D4392D288CA80DACAC227EA2FFA21
:20B64600CAE2CAF2CAA6CAA7CAABCAAA6116290125C21E460EA607461E4625D21E480EA74F
:20B6560007481E4825E21E4A0EAB074A1E4A25F21E4C0EAA074C1E4C762292A15201610EBB
:20B66600C446761F17C10644C210CE48CF471E12064A1E14064C1E166F0DC446761F17C0DB
:20B676000644C210CE48CF471E12064A1E14064C1E16761A45C46C039A006F059A036F030F
:20B6860076256F00D00CFF6900C0ADE00006D00C00C0ACA882A41EA6DC08CEC4CFCCFF58C1
:20B6960061039B076F5D7622C24CD1002B496F3F064CD901FF401E4C924C40A96CFA764071
:20B6A600B21C5AA929018F00B4B6560301A1560100A49A068AC4767F8EC89649767F8ED827
:20B6B600520260FD9249601B767F8EDAFF58601529018F40B4D6560301A1560100A58F003B
:20B6C600B4B6560100A406C55DAD8AC4DD885DA5767F8ECA96496F03284901F492A2764087
:20B6D600B220D9012901064CFF401E4C064C61059249600329016FC1761A924960039B00CA
:20B6E6006F0F767F8EDAFF586107767F8EDAD00C9B0B96936F05D00C92499B08969392A871
:20B6F600D00C00C0ADE00006520158A96107761F17C176C78220A3006F06761F17C076C73C
:20B706008020A30028A9FFFF28A81FFFBE001EACCEABCFAA0FAC6109ABA918A80FFFDE0183
:20B71600DF10FF301EAC60F592A0C3C45201600A3B018F00B47C560301A6560100A406C4A0
:16B726006F093B018F00B440560301A6560100A406C41EC5000628
:20B7310083A9C4447622D0200695D020910050031E95D0240695D02450011E95A0A9FF1734
:20B7410000031EA706C718A9FFFD1EC7A0A9FF1700031EA7290106C718A9FFFE1EC7560397
:20B7510008A4A3C518ABF0FFCBAACAAB1EC5A0A9FF1700038AA9020298C499CCA0A9FF178C
:20B76100000383A9020198C599CD06C618A9FFF8500A1EC6761AF6077700FF690006190185
:06B7710056C3FFFF0006B5
:20B7B0000001FFFF000000001DB704C13B6E098226D90D4376DC13046B6B17C54DB21A86A4
:20B7C00050051E47FFFFEDB82608F00F22C9D6D62F8ACB612B4B9B64350C86D331CDA00AAC
:20B7D0003C8EBDBD384FFFFF0000102120423063408450A560C670E781089129A14AB16BEA
:20B7E000C18CD1ADE1CEF1EF0009000103000011B20300110390FFF0B2420000A9370000B5
:20B7F000B21400000000000001DA000000000000061000000000000001C0000000000000C1
:20B80000B7B00000B7740000B7F2000004800000B7F60000C0000000B7FA00000D0000003E
:00000001FF
