:020000042000DA
:0650000001F074BB7047D3
:205008000062002001500020EF680020A76200203F6500203F6500203F65002000000000A9
:205028000000000000000000000000003F6500203F650020000000003F6500203F65002058
:205048003F6500203F6500203F6500203F6500203F6500203F6500203F6500203F65002028
:205068003F6500203F6500203F6500203F6500203F6500203F6500203F6500203F65002008
:205088003F6500203F6500203F6500203F6500203F6500203F6500203F6500203F650020E8
:2050A8003F6500203F6500203F6500203F6500203F6500203F6500203F6500203F650020C8
:2050C8003F6500203F6500203F6500203F6500203F6500203F6500203F6500203F650020A8
:2050E8003F6500203F6500203F6500203F6500203F6500203F6500203F6500203F65002088
:205108003F6500203F6500203F6500203F6500203F6500203F6500203F6500203F65002067
:205128003F6500203F6500203F6500203F6500203F6500203F6500203F6500203F65002047
:205148003F6500203F6500203F6500203F6500203F6500203F6500203F6500203F65002027
:205168003F6500203F6500203F6500203F6500203F6500203F6500203F6500203F65002007
:205188003F6500203F6500203F6500203F6500203F6500203F6500203F6500203F650020E7
:1051A8003F6500203F6500203F6500203F650020E7
:2051B8002DE9F84F934D4FF0A530C5F84007A648401C01F0F1F9D5F880068F4C20F480306B
:2051D800C5F88006D5F8800640F48030C5F880062046C01E01F04AFA204601F047FA204683
:2051F8000C3001F043FADFF814A240210122504601F048FB9048000A01F09EFA082001F0CE
:205218009BFA01F03CFC8021504601F0FBFB8021FF22504601F045FC01F031FC784801F041
:2052380025FA7848302101F0F5FB774800F022FD764800F01FFDDFF8D8B1584600F0A6FC1D
:20525800DFF8D09101464FF4E1326023484601F0ECF80A21484601F017FC0D21484601F011
:2052780013FC4121484601F00FFC764C04F10408404601F055FB01F0CDFA684A664B684EC0
:2052980068491A60684F31606848386001F0D6FA674A68493260286A396040F001002862A0
:2052B800A86C4008FCD3D5F800058008FBD34846632101F0E9FBD5F88406400803D3484699
:2052D800722101F0E1FB286840F001002860286B4008FCD3286840F004002860286BC008BC
:2052F800FCD300F047FE00F01BFE4846652101F0CBFB00F08BFD00287AD14846432101F0F0
:20531800C3FB00F08FFA002871D1002001F0FCF9D5F8D0044008FBD2D5F8D004000865D238
:205338004846442101F0B0FB434801F09FF9434D2221284600F048FE584600F027FC42F256
:205358001071B0FBF1F2FF21284601F049FB232000F058FC0121284601F09BFB3849232001
:2053780001F06AF9FF21284601F064FB4846452101F08AFB4FF4803001F0BAFA0028F9D0F0
:205398004FF4803001F04EFB584600F0A5FF00B9FEE74846462101F077FB0DF1020001F0AF
:2053B800EDFA002541F288372E46208887420ADA2580002E07BF01262A1C2E1CFF22504607
:2053D800802101F06EFB6846414601F08FF840B148462A2101F058FB9DF80000658000F095
:2053F8000FFB60880A28A8BF6580DEE7FEE7FEE7FEE7C04640B20F400400002000600040A6
:2054180001000010004002401D1004001D14040000B4C40400C00040F46A00208D5700207D
:20543800EC6A0020816A0020F06A0020DD6A0020DD670020F16800200100101000000340B1
:20545800B9660020446B0020010000802DE9F8434FF000080F46A7F800800188002900F0F7
:2054780081804188C91E3DD00D3976D0404E14396AD0491E02D0193961D058E08188C4886C
:205498000589B0F80A9065200904B5F5805F78800C44FC804FEA1440B8801FDCB4F1202F91
:2054B8001AD332492819814216D34FF6FF70ADF8000055B13178684601F056F916F8010B6F
:2054D8006D1E207004F10104F4D1BDF80000814514BF0321414602E0022100E001210420B6
:2054F80039813EE04FF40012136850689168D268184001400A40B2F1FF3F0CBF44460124C3
:205518004FF4201252F8103C52F80C0C52F8081C52F8042C184001400A40B2F1FF3F18BF83
:20553800012400F0A1FC43210220798005E07F21112679804488FE800320BC8011E040464D
:205558007E21506201200BE04FF48053320CFE8064213B810420BA8002E001201070502171
:20557800798038804046BDE8F883C04600400020000000202DE9F84F8846054600F034FE9E
:2055980000F0004100F07F0700F4407900F4401BB1EBD57F00F44020009007D108F07F002D
:2055B800B84203D108F44070484567D0354C280804D2206820F0020020605FE004F10806B2
:2055D800B06A400C28BF002059D2D4F880A14FF0A5304FF40021C4F880014FF4401000F0F6
:2055F80057F808F07F0008F44071B84208D0226822F002022260626822F07F0210436060BC
:20561800494508D0206820F002002060606820F440700143616028082AD3206820F0030099
:2056380040F0010020601CE0082001F019F950B14FF0804001F031FA28B14FF080404FF047
:20565800FF3101F03DFA104801F00AF948B10F4D284601F022FA20B128464FF0FF3101F01F
:205678002FFA30684008DFD3206840F0020020600099584600F00CF8C4F880A10120BDE84F
:20569800F88FC04600B80F4000101000001000402DE9F843364C4FF0A532D4F87481C4F888
:2056B8007421626889460746B9F1FF3F02F003024FEA82454BD009F4402646E0B5F5401FCB
:2056D80018D0B5F5001F0BD12068B6F5801F4FF4801520F0030040F00100206015D140E0B1
:2056F8002068391561F301002060206800F00300050536E02068B6F5001F4FF4001520F092
:20571800010040F0020020602BD00F2001F0CCF927E0B5F5002F0ED16068B6F5802F4FF4BA
:20573800802520F0030040F0010060600DD00F2001F0BAF909E060684FEAA94161F30100CF
:205758006060606800F003008504B542E1D12068B7F1FF3F00F003004FEA005503D007F4C7
:205778004016B542AAD1C4F87481BDE8F883C0460CB80F40F0B50124ADF1A40D274E264F5C
:20579800ADF802000D46ADF8004016E00DEB4400B0F8540001F0FCF8BDF85200641CA4B222
:2057B8002DE001F023F8BDF800100DEB41014880BDF80000401CADF8000030783978884218
:2057D800EFDC174E28460021ADF8521058B1401E12D13046312101F057F968460DF1520199
:2057F80000F054F908E03046302101F04DF968460DF1520101F0B8F8BDF8520050B1A042E4
:20581800C4DCBDF85400294600F088FD30462F2101F03AF929B0F0BDE26A0020E16A00209C
:2058380000C0004029482DE9FC474FF0000A2549254DA0F800A04FF6FF7941604FF0004840
:20585800ADF806900DF1060001F038F8074657B30DF1060001F07CF80646381F00EBD07042
:20587800401000281FDD04460DF1060001F026F80246CDF8008031460120034600F0C2FE21
:20589800002818BF6FF001001AD128684008FCD2286810F0004F18BF6FF0020010D1641E86
:2058B80006F10106E0D101A801F008F8BDF80610884218BF4FF0FF3002D1002FC0D1504684
:2058D800BDE8FC870070002010B70F40846B0020002A4AD05FEA000C8B071CD1830722D13E
:2058F800102A08D370B4103A78C978C0103AFBD270BC103238D0042A2CD3082A05D30C2A9A
:2059180024BF08C908C008C908C008C908C092072AD0920F22E00B780370491C401C521E64
:2059380022D08B07F7D1C30714D18307D8D0121F12D308C903801B0C4380001D121FF8D2B6
:205958000AE008C903701B0A43701B0A83701B0AC370001D121FF4D2121D05D00B780370AB
:20597800491C401C521EF9D160467047F0B51E480127F84201D000F0F3FC1E4D1E4F1F4E55
:20599800BD4206D203CD0478A4003459401CA047F6E7164D164FBD4202D210CDA047FAE73B
:2059B800F0BD03251BE0416808300A1C2A400BD11A1C2A40AB4305D0046804300C6004310E
:2059D800043BF9D1131C05D0047801300C700131013BF9D1021C2A4001D0A843043003685E
:2059F800002BE0D17047C046FFFFFFFF0000000000000000286F0020606F0020EC6E0020DA
:205A180010B5214C2178012906D0FF2802D000F059FA10BD012034E0FF282ED0A288E168CD
:205A380012BBFE2809D0F32824D16078001FC0B22118607091F8391004E060780021C01E73
:205A5800C0B2607004F13802105C052806D03E2804BF0022E270626990470BE000F0C6FE70
:205A780020810120E07005E0FF208847E0680146FD20884700F048FF10BDFF2000F022FA7F
:205A98000020207010BDC046E06A002038B503889BB11B4D00220EE04300EC5A0A88401C4E
:205AB800CB1880B25C8024E05300C4186488EC520388521C92B29342F6DC124A13685B0862
:205AD80019D24FF40033136203880F4D536252F8083C45EA030042F8080C10684008FCD2A0
:205AF8001068000807D2D06A82B20A801AB1034D00208242D0DC002038BDC04600F0072060
:205B180000F8072010B70F40010000801E4802684FF6FF705063D2F8880220F0030040F0E9
:205B38000500C2F888020020C2F8A402D2F8881221F0070141F00201C2F88812D2F888121B
:205B580021F0030141F00501C2F88812C2F8C002D2F8881221F0070141F00201C2F888120C
:205B7800D2F8881221F0030141F00501C2F88812C2F8C402D2F8881221F0070141F00201D8
:205B9800C2F888127047C046E46B00201C49091D51F8042C02F00302032A18D10B680A6877
:205BB80003F07F03C2F301224343521E4FEA53000BD0521E06D0521E04BF00EB400200EB92
:205BD800920004E000EB500001E000EB90008A6802F00302521E07D0521E03D0521E08BFF6
:205BF800C00802E0800800E04008C96801F00301491E03D0491E08BF800870474008704767
:205C180000B80F40194A042827D0052820D0062819D0154A0F2811D0102823D32F2808D9CE
:205C38004F2803D9124A5038FC3A03E03038121D00E0103801218140104612E0F03A11686F
:205C580041F00201F8E71046016841F48021F3E71046016841F40031EEE71046016841F4BC
:205C7800803101607047C04600E100E024ED00E004E200E038B51849184C0A680123C0F3CA
:205C9800074103FA01F5154208BF54F8311003D0042202EBC102A158C0F30314C0F30722BE
:205CB8003CB9D1F8304595086FF00103AB40234004E0D1F830459508AB402343C1F830351D
:205CD800D1F82C450F2300F00F00934090409C432043C1F82C0538BD6CE00F40046E002050
:205CF8002DE9F041174C07464FF0A530D4F83081C4F83001206807F4403600F00300050422
:205D18001AE0B5F5403F0ED12068B6F5003F4FF4003520F0010040F0020020600CD00F20B1
:205D380000F0C2FE08E02068391461F301002060206800F003000504B542E2D1C4F830816E
:205D5800BDE8F08150B80F40164A042824D005281ED0062818D0144A0F2810D0102820D36D
:205D78002F2806D94F2887BF503888323038843201E01038803201218140104610E0F03A8A
:205D9800116821F00201F8E7116821F48021F4E7116821F40031F0E71046016821F480315A
:205DB8000160704724ED00E000E100E070B510F8014B1BE0401C5AB1FF2B09D8022510F8EC
:205DD800016B6D1E46EA0323F9D101E0042B02D310F8015B03E0254601E001F8015B5B1E4E
:205DF800B3F1FF3FF9D101E001F8013B10F8013B9C42F9D110F8013B002BE7D110F8015B52
:205E180003782D025B19D5D170BD70471548F8B500250580124941604FF6FF77ADF8027040
:205E38000DF1020000F04AFD06465EB10DF1020000F08EFD341F05DD0DF1020000F036FBE7
:205E5800641EF9D1684600F039FDBDF80210884218BF4FF0FF3002D1002EDFD12846F8BD60
:205E780000700020846B002010B5144A144913684FF0A530A1F52E741060206840F00100FB
:205E9800206054F8080C40F0030044F8080C002008604FF4007044F8480C086840F001001B
:205EB8000860086840F0020008600A20C1F800030720136000BF401EFCD110BD80B90F4099
:205ED80000A30F4070B5154CA3886578191381EA201104EB41010A8B617882EA031296B2FA
:205EF800491C00F00F03C9B283EA2633292904EB4302128B617004EB050383F8380082EAD8
:205F18000612A28009DB00F0FFFCE0680146FF208847E0680146FC20884770BDE06A0020D2
:205F380038B54FF00045012044F6221155220223009500F09BFA0E4C20684008FCD2206814
:205F580000080CD2012044F6321102222B4600F007FB20684008FCD22068000801D30120FB
:205F780038BDE06A10F0550FECD0002038BDC04610B70F4038B54FF00045012044F620117C
:205F980014220223009500F071FA0E4C20684008FCD2206800080CD2012044F63011022278
:205FB8002B4600F0DDFA20684008FCD22068000801D3012038BDE06A10F0140FECD0002030
:205FD80038BDC04610B70F40064AC3681A40C2600A0E026001F0FF024260C1F307218160D6
:085FF8007047C046FEFEFFFFEA
:20620000F8B5134B4FF0A530A3F5BA771C6818603A687968786C57F8086C57F8085C57F86E
:206220000C7C02F00302120501F0030142EA814200F0030042EA004206F07F00104305F4C2
:206240004075054345EAC77528461C60F8BDC04680B90F40530827BFD0F80C350B43D0F849
:206260000C358B43C0F80C35930827BFD0F810350B43D0F810358B43C0F81035130927BF60
:20628000D0F81C350B43D0F81C358B43002AC0F81C3519BFD0F828258A43D0F828250A4361
:2062A000C0F828257047FEE738B5104C0546E068FF2D03D10146FF208847E068E288111356
:2062C00081EA251104EB4101098B81EA02118BB205F00F0181EA233204EB4201098B0246CA
:2062E000E8B281EA0311E180904738BDE06A00200D4A01461068400814D20C481062516231
:206300000B4852F8083C184342F8080C10684008FCD21068000805D2D26A0020914208BF18
:20632000012070470020704710B70F40010002000100008038B50D46FFF7B6FF15B12846F5
:20634000FFF7B2FF0B4CE08800F02EFBE0680146FF2088471DB9E0680146FE2002E0E06894
:206360000146F3208847206980474FF6FF70E08038BDC046E06A002070B506460E4D738864
:20638000002416E0A00000EBC40030184168C26880684AB92A6852B10A7855F822304A1C72
:2063A00001461046984701E0FFF79EFA7388641CA4B2A342E6DC70BDEC6E002000BF70475D
:2063C00008B5FFF7FBFFFEE738B50546094800688047094C201D006810B101462846884734
:2063E000206800B18047054800688047FFF7E8FF38BDC046CC6B0020D46B0020D06B002038
:2064000038B50C46A1880546322905D100F060FB00250121A17110E000F05AFB618861185D
:20642000CD716188491C61806188322904BF00216180A1880125491CA18000F0CEF92846EC
:2064400038BD38B515460C4600F036FA2946B4EB011F24BF026B22F0200203D2026B490848
:2064600042F02002E4000263B4FBF1F1491CCA094262C1F345018162C3620021816100F01D
:20648000A7FA38BD70B50E4D049C55F8206C04431046344218BF012011D1012B03D0022B54
:2064A00007D10A2202E000040922000C2A606960A86055F8280C044345F8284C002070BD9A
:2064C00030B70F400E4910B502460B884868185C5B1C0B801488231383EA201301EB4303C5
:2064E0001B8983EA04139BB200F00F0484EA2334138001EB4401098981EA0311118010BD2C
:20650000846B002038B50C46A1880546002908BF002013D000F0DCFA21886118C9792980F3
:206520002188491C21802188322904BF00212180A188491EA18000F050F9012038BDFEE73E
:206540000C4802684FF6FF705063D2F8880220F0030040F00500C2F888020020C2F8A402B6
:20656000D2F8881221F0070141F00201C2F888127047C046E46B002038B50C4C54F8205CDD
:2065800003432B4218BF01200ED1012A03D0022A03D1082000E007202060616054F8280C83
:2065A0000343002044F8283C38BDC04630B70F4070B50C4D2E68044640F27F314FF0A5324E
:2065C00004F0004021402A60FEF7E0FF04F4401004F44021FFF768F804F44030FFF78CFBEC
:2065E0002E6070BD80B90F400A4A10B51078002808BF4FF0FF300CD0074B9B1E198850186A
:2066000040781478491C89B28C42DCBF00211170198010BDA06F0020F26B002070B50B4DFC
:20662000049C55F8206C0443344218BF01200CD1012B14BF0620052028606960AA6055F85D
:20664000280C0443002045F8284C70BD30B70F40F8B50A4C084A25681346AA4209D0084E35
:2066600017466C2556F804CB6D1E47F804CBF9D1226043F82010F8BD006C002008ED00E0A9
:20668000085000200B490A4A70B5030F4FF0A534091D51F82310136814600C680604C0F3C9
:2066A0000445300CA84020430860136070BDC04680B90F40BC6D00200A4810B5012100F002
:2066C00009FAFFF791FF084C002803D42146091DFFF796FE214648880A88401C4880521C6C
:2066E0000A8010BD00000340446B002009488546094885446F4607208743BD4607486F464E
:206700000760FFF73FF900F023F90120FFF75CFEFEE7C0460060002000020000DC6B002093
:206720000A4928398A686FF35E02002A18BF012008D111228A62044BC862086843EA0002BF
:2067400000200A607047C0460100008030B70F40094B0A4A70B5010F1C6852F821204FF010
:20676000A531196011680604C0F30445300CA840814311601C6070BD80B90F40C06D002074
:2067800010B50388094C1A1382EA211234F8122001F00F0182EA031292B281EA2231028024
:2067A00034F8111081EA0211018010BDAC6B0020530827BFD0F800340B43D0F800348B4334
:2067C0009208C0F8003427BFD0F820240A43D0F820248A43C0F820247047704710B5074C99
:2067E00021882F2908DA064A53185870491C218000230120137010BD002010BDF26B00202F
:20680000D06F0020084988780A1892F83830401CC0B21B020A1892F838208870D218431C84
:2068200090B28B707047C046E06A0020084A08B54FF6FF70908000F073F80023D370024915
:20684000D1600248506108BD235E00207F690020E06A0020054B002005491870891E0880BF
:20686000044A4880114608707047C046A06F0020F26B0020D06F00200749020F103151F880
:2068800022100A680104C0F30440090C81400020114218BF01207047B06D00202AB1012A1D
:2068A00009D1D0F83425114303E0D0F8342522EA0101C0F83415704781690909FCD2C16ACA
:2068C000034A21F01001C162016B0A4002637047FEFCFFFF38B50546FFF7F4FD0446284685
:2068E000FFF7F0FD210289B2081880B238BDFEE70449034A887810700020488000BE7047B4
:20690000D06F0020F06B00200449091F0968024600200A4218BF01207047C04608B70F4040
:20692000044800210170417081704FF6FF718180C1807047E06A002010B5044600F0C8F800
:20694000002121806180A180A171FFF746FF10BD0449B1F1FF3F07BF0020011C0868091D93
:20696000FEF72ABCFFFFFFFF38B50546FFF7B2FF04462846FFF7AEFF2104401838BD7047DD
:20698000034A13780BB1FCF7A3BAFEF76BBDC0464C6E0020034900200870487081F82200DF
:2069A000486270474C6E002010B504462012FFF77BFC04F0FF00FFF777FC10BD034BC2684D
:2069C00063EA01011140C1607047C046FEFEFFFFC16A41F01001C162026B40F2013111438A
:2069E000016370470349086070470249091F086070477047D06B002011F0FF0F18BF8262A3
:206A000011F47F4F18BFC2627047D0F8030020B10022401E01F8012BFBD1704710B5012245
:206A2000FFF7C6FE0822FFF715FC10BD10B50222FFF7BEFE0A22FFF70DFC10BD024908397F
:206A40000A6810430860704708B70F40C36840F2011211401943C1607047D0F80320C31D84
:206A600008461946FEF740BFEFF3108072B6704700207047EFF3108062B670470020704735
:206A80000146014800F00CB800C0004008B5FFF7EBFFC0B208BD08B5FFF7ECFFC0B208BD09
:206AA00082699209FCD2016070478269114381617047806800F00100704740F821207047D2
:1E6AC000401EFDD170470122FFF77CB9002070470020704741627047016070477047B0
:206DB00040E00F4044E00F4048E00F404CE00F4000E10F4004E10F4008E10F400CE10F4017
:206DD00010E10F4014E10F4018E10F401CE10F4020E10F4024E10F4028E10F402CE10F4033
:206DF00010E00F4014E00F401CE00F4024E00F4094E10F40004000400080054000500040CA
:206E1000009005400060004000A005400070004000B005400040024000C00540005002404A
:1C6E300000D005400060024000E005400070024000F0054000D00340000006402A
:206E78000101011A002110422063308440A550C660E770088129914AA16BB18CC1ADD1CE9E
:206E9800E1EFF10176002110422063308440A550C660E770088129914AA16BB18CC1ADD131
:206EB800CEE1EFF100002110422063308440A550C660E770088129914AA16BB18CC1ADD1BA
:206ED800CEE1EFF1F3690020F3690020010C0001000000000B6A0020C76A00205B6A00203A
:206EF8000000000014000000000000002800000000000000B001000000000000300000005D
:206F180000000000300000000000000000100000786E0020E06A0020F86E0020E06B0020B8
:206F3800006F00204C6E0020086F0020006C0020106F0020A06F0020186F0020D06F0020D9
:086F5800206F00200000002062
:2070000000240000B3F08BBE8EBE000693A6FF9608A87F7F6FF6FF2000006FF3FE021E424C
:08702000761F01389806E81004
:2070280000240000B03001378A4456BF7ECC8A4456BF01C4FFEF012E761F002B1A2F800091
:08704800761F4FFF0638726647
:2070500000240000B1A07640B2707640B1A77640B20300067622761F01C056BF021B761AA4
:087070008F24021E9A035D0843
:2070780000240000B480FF5860F77640B4AF7640B4CA2902FF58611B5CA8917F08A8008063
:08709800FF362FA893A4A6C344
:2070A00000240000B4E00006C141C0420644CFAACEABFF5A06427620994198420644CBAA28
:0870C000CAABFF5A06425D3322
:2070C80000240000B0C001D46F038A582BD48A4456BF43CC8A44924596D48A4456BF02C442
:0870E800FFEF00982901120CD2
:2070F00000240000B090761ACC2F0020FFC45201ED032B456F221A2F8000761F4FFF063880
:087110001E4C063A1E4EB6F5B6
:2071180000240000B010761F02EC9201ED098F00BB00A84283468A447640B0256F088F000B
:08713800BB00A84283461FA121
:2071400000240000B30080006F05C418A8A90FA6ECF50644ECEE8F0F4240A3440200F61F5F
:08716000561700A43F4570A280
:2071680000240000B2A0FF58ECFA061A966B522856C7003A2BFA6F0C0EFAD0085CAD079240
:087188001EA758FADCAAACC7EF
:2071900000240000B1E01A1D00081A1D00101A1D00201A1D00401A1D00801A1900011A20B1
:0871B00008001A200100DB5366
:2071B80000240000B4201E42761F013898009901FE820006FE021E42761F01389802990375
:0871D800FE820006FE02B48CE9
:2071E00000240000B4B0FFFF28AAFFFF28A9FFFF28A8FFFF0FABED04BE00D4006F098AA9B4
:0872000028A9FFFF88C4FC82ED
:1672080000120000B540FFFEBB6C0000B50C000000000000B8EBE1
:20721E0000240000B050FFC25201ED0456BF02456F64CC2F0010FFC35201ED032B456F5DAC
:08723E00290125D41E4CF525A1
:2072460000240000B470FFFF28A8FFFF0901610E76FFFFFF6F06DF01C3BD1EA73E67C5BE66
:0872660024A9DF0124A86B92AA
:20726E0000240000B2400001761F010CCC00FFF0500A9600761AF6077700FF6900063B10DF
:08728E00761F0033182006D022
:2072960000240000B2C0761F0138D00C0E921E1E2BFA6F0B5CAD58FADCD35CA49294D00A13
:0872B6008A9258FA96945D6873
:2072BE0000240000B3908F000152A8A9071E8AA9C2C48F000144A8A9071E8AA9CCC4FFF834
:0872DE00500296C49A00F0442E
:2072E60000240000B0E0924896DC2B496F0E884906A607581EA692499C030EA907428AA94A
:0873060092CC8AA696E41FA4B4
:20730E0000240000B51076256F00FFE4BB400000E0000013C0000013A00000138000001382
:08732E00000000138000BE26E0
:2073360000240000B360CCC4FFF8500296C48F000144A8A9071E8AA9CCC4FFF8500596C41A
:087356008F000162A8A9514853
:20735E0000240000B1B0FF69C5C43E6776228F2402149A019B08FF69C5C43E675200EDF888
:08737E008F2402149A025C8EB8
:2073860000240000B5200012000000128000001100000011800000106000001040000010D8
:0873A60020000010000025D5B5
:2073AE0000240000B45028A800000901611B76C0B51229046F0F9B0024A9DF016C042904B4
:0873CE0024A8DF011EA6B9B6D8
:2073D60000240000B200761AFF69000676220200761F017E1E061E081E161E181E26761F88
:0873F60001BE1E061E3666A151
:2073FE0000240000B2602B292B2B2B2D2B2F2B312B332B352B372B391A2000012821FFFF7B
:08741E002910FF690006E98E48
:2074260000240000B3C097A618A400FF18A500FFDCFF92A494A596A7642F08A9FF016227A7
:087446002D4236A037A1FBF92D
:20744E0000240000B0401E4C063A1E4E063C1E50063E1E52761F002B462FEE0456BF03450C
:08746E006F6CCC2F00087D5F5C
:2074760000240000B1D01A1D10001A1D20001A1D40001A1D80001A1901001A1D00011A1DE2
:0874960000021A1D0004C0955C
:20749E0000240000B4100006FE021E42761F01380604CE42CF41FF58ED039A006F029A019B
:0874BE00FE820006FE02D4016B
:2074C60000240000B3308F40FFFFA0C48F000144A8A9071E8AA9BE00CCC4FFF8500596C4FD
:0874E6008F000152A8A958858E
:2074EE0000240000B0A0063C1E50063E1E527622761F002B064C1E20064E1E2206501E2492
:08750E0006521E26761AA204A3
:2075160000240000B370071E8AA9C2C48F000144A8A9071E8AA9CCC4FFF8500296C49A00E6
:087536000006021A761FB9D409
:20753E0000240000B1709A03FF69C5C43E6776228F2402149A019B08FF69C5C43E6752002E
:08755E00EDF88F240214B7467A
:0C7566000008000000000040B4426F2448
:2075720000240000B4301E428F03F800A8A90F4256C600070642FF30FF1F40006F050642B1
:08759200FF30FF1F3FFE945281
:20759A0000240000B15096D48A4456BF11DC8A4456BF03C46F0E92CC520356C1FEDF521042
:0875BA00ECE3522356C1AC269C
:2075C20000240000B0F00A498A4292C49CFD544956C900069249522056C8FFEB884992C499
:0875E2009CFD0EA90FA65ABD85
:2075EA0000240000B11007480FA456C9000556BF02456F232B452B539249545356C9001EDB
:08760A000E5307588AA915C6AA
:2076120000240000B490FFD65CA891FF08A8FF81640F08A8FFE2620F6106FF5D2DA893AA0D
:0876320056226F0293AAA74D36
:20763A0000240000B0708A4225F41E508F00FFFFA8A989FD07501E50020807428AA925C401
:08765A001E52020907427A8466
:2076620000240000B2D00AFAD00C929254FA56C6FFF306C2761F0138CA06CA42CB07CB41B2
:087682001E066F0406424304DA
:20768A0000240000B500F60F1FA692A87620761F02EDA82C0006761F02ECA83E000600069A
:0876AA00761B29425616D55249
:2076B20000240000B3E008A8FF016311A9A9FF46917F5BA85AA925A695A7FF960CA295A3AE
:0876D200FE8282BE86BE90E537
:2076DA0000240000B2B05CA492C796940AFA926B54FA56C6FFF35CAD5DADDCABDDD45CA4DF
:0876FA005DA57640B00DFC2AED
:2077020000240000B4C028A8FFFF09028AA992A67640B2E5000677006F00B2BD761F02EC60
:0877220059A9C53E3E675F96C0
:20772A0000240000B3105CADDC855CA47640B000761F01384008EFFD6F099A0028A8800024
:08774A001E4202017640450FCA
:2077520000240000B280A0C40A419241528056C4FFF8761A761F00331A200001FF69FE84DF
:087772000006AABD5AADDFA21A
:20777A0000240000B06083428F00FFFFA8A989DD074C1E4C8A4225E41E4E8F00FFFFA8A9D6
:08779A0089ED074E1E4EED784B
:2077A20000240000B1F01A2002001A2004001A1C04001A1C01001A1C00101A1C10001A1C55
:0877C20000011A1C0004C7DAE3
:2077CA0000240000B4009907FE820006FE021E42761F01380608CE42CF41FF58ED039A0064
:0877EA006F029A01FE8295DE98
:2077F20000240000B2F01E440644ED168F020001761F01384008EF0E6F09061A1E441E1E27
:087812001A0600011A0768596B
:20781A0000240000B2301838FFFD1838FFFE761F0100CC00F0FF1AA903009600761F010567
:08783A001A3800021A385DBA89
:2078420000240000B3A000063ABDB2BDAABDA2BDFE022901FF5861455CA8917F08A8008012
:087862001E4293A4FFD6F2FCC4
:20786A0000240000B3B05CA8064E613B5DA8917F08A8008059A858A993A5FFD65DA893A4F3
:08788A0071A518A80100BE471A
:2078920000240000B340071E8AA9C2C48F000144A8A9071E8AA9CCC4FFF8500296C48F00A2
:0878B2000144A8A9071E37F6E6
:2078BA0000240000B000FE02A842761F02EC2B012B022B032B24C54292C79600FE8200061B
:0878DA00FE06A046A8444EE2A0
:2078E20000240000B0D025D41E4883428F00FFFFA8A989DD07481E488A4456BF63CC8A44E5
:08790200064897D48A441F9C3B
:20790A0000240000B460F7A1248606A781A109011EA724A96303FF5C3B0459A9DF0100098D
:08792A00FFEC761A28A953C3F3
:2079320000240000B1306F09020107481E480A539249545356C6FFE68A44924596E48A4433
:0879520056BF04C46F267969D9
:20795A0000240000B4F07620F341F242064471AA70ABFF5A0642762097A69B00F60F1FA6EE
:08797A00762097A69B00EE4168
:2079820000240000B1903E675200EDF98F2402169A0228A88000C5C43E675200EDF8761AF7
:0879A200FF697640B24CA2DD42
:2079AA0000240000B100EC0456BF01456F368F00A000A8A90F4856C6000C83428F00B000F5
:0879CA0092C59CFD0EA981BFCE
:2079D20000240000B440FE82000628ADB800FF69561F5616561A2940761F00002902761BF7
:0879F200762228A9B512E5E890
:2079FA0000240000B2E098069907FEDA86BE0006FE067640B1697640B2278F010000A8A913
:087A1A007640B41F02008E96B5
:207A220000240000B320B28E6FF4C4188F020000A8A90FA6ECF36FED9A000006021A761FAB
:087A420002ED071E8AA9A70549
:207A4A0000240000B1809A0228A88000C5C43E675200EDF88F240220C5C43E678F240216A8
:087A6A009A019B08C5C40B5DE5
:207A720000240000B4A048A46C02FF540006FF200000000628A87FFF28A9FFFF48A46CF738
:087A92000901000628ABF2D93E
:207A9A0000240000B1408A5856BF01CC8A4456BF50CC8A4456BF01C46F1C8A4456BF7FCC93
:087ABA008A4292CC8A448187C4
:207AC20000240000B08083A98F00FFFFA8A989C507521E527622064C1E20064E1E2206501D
:087AE2001E2406521E268F37F8
:207AEA0000240000B2101E38761F017E1E0A1E1A1E2A761F01BE1E0A1E3A761F017E1E027C
:087B0A001E041E121E14C871B6
:207B120000240000B290DA86FE5A1E428F03F800D00AA892D0088F03FC00A892761F0138C9
:087B32000608CE42CF414E626D
:207B3A0000240000B250FFFE2B222B242B262B282B2A2B2C2B2E2B302B322B342B362B38E8
:087B5A002B232B252B27F7D26A
:207B620000240000B3508AA9CCC4FFF8500596C48F000160A8A9071E8AA9C2C48F00014480
:087B8200A8A9071E8AA967A04B
:207B8A0000240000B0B0CC2F0020FFC45201ED032B456F0356BF01459245ED08FF6976400F
:087BAA00B2278A5856BFD3BD73
:207BB20000240000B5300010FFFEBB68000000000000FFFEBB6A000000000000FFFEBB3E62
:087BD2000000B50C0000508E0C
:207BDA0000240000B4D0761F02EDC52A06A7EC0392A13E67761F02ED0628EC031EA73E67F1
:087BFA007640B4C88BBE9D4B20
:207C020000240000B0208A447640AAC3FE860006FE14A044A8428A442BC48A4292C456C01E
:087C2200012C9A00FFEF732111
:207C2A0000240000B12092E48A4896C40E5307588AA90EE48A4888C40FA6EC070E53075838
:087C4A008AA992E4964556CB8D
:207C520000240000B270FE048F000D00A84476222B419241528056C3000E8F40B50D8A4413
:087C7200A8A909021E4490A616
:207C7A0000240000B160FF70523E56C1FECF6FE69A00FF69FE9400063B1076260000762F57
:087C9A0000008F24021E9C185B
:207CA20000240000B38002ED071E8AA98F40FFFFA0C48F000144A8A9071E8AA9BE00CCC428
:087CC200FFF8500596C4493B90
:207CCA0000240000B1C028A8803FC5C43E675200EDF8761F01C01A1D01001A1D02001A1D13
:087CEA0004001A1D0800F52238
:207CF20000240000B3D0FF4F07ABFF5A2D4136A007AB37A105AB09406304FF4008A7000155
:087D1200FF5A93A765196ED01A
:207D1A0000240000B2201E22761F01BE1E02761AFF6900067622761F01001A1E00011A1A06
:087D3A000003761F01051BDEAA
:047D420000001D0F11
:00000001FF
