:020000042000DA
:0650000001F0CCBC70477A
:205030002DE9F84F0C46074601F066FA00F0004100F07F0600F4407500F4401A00F4402919
:20505000B1EBD77F09D104F07F00B04205D104F44070A84201D10120A9E0DFF858B138080B
:2050700006D25946086820F00200086001209EE0554820380068400C01D3002097E04E4876
:20509000016800914FF0A531016004F07F00B04203D104F44070A8422ED0DBF8000020F0E4
:2050B0000200CBF800000020014600F0B1FADFF80C8104F07F00B04205D0424611684046F4
:2050D00064F30601016004F44070A84205D042461068211261F3092010605946086820F05B
:2050F000030040F001000860762002F017F84246106864F30600106038084DD3334C1CE0C5
:20511000082001F017FE50B14FF0804001F0EAFF28B14FF080404FF0FF3102F01FF82848B7
:2051300001F008FE48B1274D284601F0DBFF20B128464FF0FF3102F011F8201F006840082A
:20515000DED3BAF5401F02D1B9F5002F19D0BAF5401F0FD0B9F5002F06D00AF5801009F5BA
:20517000802100F055FA12E00AF58010494600F04FFA0CE009F580214FF4401000F048FAA6
:2051900005E04FF440104FF4002100F041FA5946086840F002000860222001F0BFFF5046C8
:2051B000494600F035FA0448009901600120BDE8F88FC04600B80F4080B90F4004B80F40FE
:2051D000001010000010004050B80F400CB80F40F8B55548534C206000201F2805DA2168AD
:2051F000415C401C00B21F28F9DB2068216840880F8807EB004720682168C0888E8806EBD0
:2052100000464A494FF0A53008604B4D2846000A01F0E6FC082001F0E3FC304600F042FEA8
:2052300001F02AFF43481C2101F006FE4049086008680022394601F079FF284601F0E8FCD9
:205250003E4D2221284601F087FD42F21070FF21B7FBF0F2284601F086FE2846012101F0C1
:2052700039FF3749232001F0EFFB232000F05CFE2846FF2101F0A6FE324E4FF416503060DF
:2052900032480C2101F00CFF2F4D2860286801213A4601F03AFF2868316800F0C1FD2C49AF
:2052B0003068086000F006FB01F0EBFE20680089002833D12749A1F12802106840F0010001
:2052D000106008684008FCD324481C2101F0E3FE214C20602348082101F0D8FE2049086033
:2052F0000868216801F0CCFB2048102101F0BFFE1D4D28601E4A2168286801F0FAFE1E48E4
:205310003C2101F00BFC1B4C20602B6820683946002201F0D7FE206800F02EFB00F02EF808
:20533000FCE7C0462C8A00201050002080B90F40348A00209C89002001001010000003400F
:20535000AD6C0020308A00205C8A0020148A0020288A002088B20F40588A0020B8890020A8
:20537000408A0020208A0020388A0020E4890020747100204C8A00203C8900202DE9F843C9
:205390004B4D2868694601F021FB4A4C80B19DF80010206801F0BCFE2868694601F016FB39
:2053B0000028F4D12546286801F0B5FE0028FAD1424D414E2868316888420BD0206801F0F9
:2053D000AAFE0028FAD120462968006800F028FD286830602068694601F021FD28B13848EF
:2053F0009DF80010006801F000FA364D2868364FDFF8D880364E374C008960B9386841460E
:205410003246282300F04AFE28B1328820684146012301F04FFB206800F0E8F920680DF1A1
:20543000020101F097FD00283FD0BDF8023020684146324601F0E7F82749304601F086FA08
:20545000DFF89C9050BB304601F03CFAF0B9BDF8020050B1401E28D12868008928BB328823
:205470003868414600F0E4FA1FE000200D4628801A48006831462A4600F034F8BDF8023059
:2054900020682A88494601F015FB0EE00A88BDF802302068494601F00DFB06E00A88BDF88E
:2054B00002302068494601F005FBBDE8F883C046548A00205C8A0020288A0020308A0020CC
:2054D000508A00202C8A00203C8A00205688002054880020448A0020A6880020488A0020DE
:2054F000A8880020F8B51746044600253D800888002800F08C804888C01E6FD00D3800F040
:2055100081802E385AD0B4F91200012852D04888232808D07F2078804888B8801120F880A5
:205530000320388073E088880004CA88121828460B88DB1E834201DD20282BDB63237B8031
:20555000130CBB80FA800B88DB1E83421DD1636D934218D80988A36D5118C91E8B4212D3F0
:20557000294602E0921C491C89B288420EDD04EB41039B8A138004EB410316889B8AB342F1
:20559000F0D0032502E0022500E001253D81042038803CE001EB40031B891E0601EB400328
:2055B0001B891B1203EB164304EB4006B382401C80B2BDE7204606F073F828E0012626808B
:2055D000B4F9100000B935466582E06810B1E06801F048FD7E2078803E8018E06068091D22
:2055F000082200F09FF828B901206080606803F02BFE01E06580102543207880BD8002206F
:20561000388004E001206082502179803880F8BD2DE9F84F0F4606463F48016800914FF046
:20563000A53101603D4C206800F003008504B7F1FF3F26D0A046C146CA461EE0B5F5002FE6
:2056500011D1D9F8000020F0030040F00100CAF800004FF4802507F4402085420DD00F206B
:2056700001F05CFD09E02068B91461F30100C8F80000206800F00300850407F44020854257
:20569000DCD1274D286800F003000705B6F1FF3F3CD02C46A046C146CA46D34632E0B7F513
:2056B000401F20D0B7F5001F11D1DAF8000020F0030040F00100CBF800004FF4801706F431
:2056D000401087421ED00F2001F028FD1AE0D8F80000311561F30100C9F80000286800F0C8
:2056F000030007050EE0286820F0010040F0020020604FF4001706F44010874202D00F20DC
:2057100001F00CFD06F440108742C8D1024800990160BDE8F88FC04680B90F4010B80F40BE
:205730000CB80F40F8B5082A01D0032057E02C4FD7F800C0002038602A4E4FF400423260EB
:205750004FF400121568284A131F1C681368121D1268B646DEF800600096C7F800C0009E36
:20577000360B01D203203AE0009EB60901D3032035E0009E360A32D20F884E883E438F8878
:205790003743CE883E430F8937434E893E438F893743CE893E430FD00A8812044D88AD18B3
:2057B0008A881204CC88A4180A8912044B899B188A891604CA8992197646A6F180010D6005
:2057D000A6F17C010C60A6F178010B60A6F174010A60316800910099890A00D20320F8BD48
:2057F00000A30F4080B40F40080020007CB50446002501261CE06068FF2100F0F6FF6068A4
:20581000FD2100F0F2FF204601F03AFB10E02046FF2100F0D1FD25810AE09DF80000FF286D
:2058300005D09DF80010204600F0C6FD00E026812068694601F0CAF8002839D0B4F93C003A
:20585000002835D1B4F908000128E6D19DF80000FF28DCD09DF80000F428D4D0E08E002822
:20587000C9D19DF80000FE2803D09DF80000F328C9D19DF80000FE280AD094F83300001F33
:2058900084F8330094F833000019C07A608705E0658794F83300C01E84F83300E08F618FD4
:2058B0008842B0DCB4F84000618F8842ABDBA6877CBDFEE738B520480068008940B9204864
:2058D000242101F075F91D490860086801F09AFB1D48102101F068FB1A4D28601C481021E2
:2058F00001F062FB194C20601A492868642201F0E1FB19492068642201F0DCFB1848442122
:2059100001F0CAFA1549086008682268296801F0F6FB15485C2101F075FA124C206013491B
:20593000206809680022134601F0C8FB1049114A206801F06DFB38BD2C8A00203C8A0020E9
:2059500078890020508A0020F4890020548A0020048A00203087002094870020448A0020D3
:20597000F8880020488A0020F8870020348A002000A00020EE1A000010B504462849086850
:2059900020F480300860086840F4803008602749081D00688008FBD300F068FC00F0BAFBC3
:2059B000204801F0F1FAA06901F061F918B901202074002033E0A069E16900F067F918B912
:2059D0000220207400202AE0002000F09DFF164801684908FCD20068000803D30320207448
:2059F00000201CE04FF4803001F032FA0028F9D04FF4803001F0C0FA606838B1204600F0D5
:205A10008BF918B904202074002008E0204600F0C5F908B1012002E004202074002010BDEC
:205A3000C0B80F400100008010B70F403CB70F40B0B517460D4604460FB9012045E02089A0
:205A5000B84203DA0320207600203EE0206901F00BFA18B101202076002036E0002006E02D
:205A700035F81020216821F81020401C80B28742F6DC1648E168021F116007602C38216930
:205A90000268114362690A430260E06900250580206901F0E9F920B1E169208C098888424D
:205AB000F6DC206901F0E0F930B102202076206901F06AFA284608E0606901F0D5F918B193
:205AD00004202076284600E00120B0BD34B70F40002A4AD05FEA000C8B071CD1830722D151
:205AF000102A08D370B4103A78C978C0103AFBD270BC103238D0042A2CD3082A05D30C2AA0
:205B100024BF08C908C008C908C008C908C092072AD0920F22E00B780370491C401C521E6A
:205B300022D08B07F7D1C30714D18307D8D0121F12D308C903801B0C4380001D121FF8D2BC
:205B50000AE008C903701B0A43701B0A83701B0AC370001D121FF4D2121D05D00B780370B1
:205B7000491C401C521EF9D160467047224B18684FF6FF714163186800F52270016821F0F6
:205B9000070141F00501016019680020C1F8A402196801F522710A6822F0070242F0020288
:205BB0000A60196801F522710A6822F0070242F005020A601968C1F8C002196801F522712B
:205BD0000A6822F0070242F002020A60196801F522710A6822F0070242F005020A601968CD
:205BF000C1F8C402196801F522710A6822F0070242F002020A607047D88900202DE9F0475A
:205C100091460F460546B5F90A0018B10120A9F8000039E00FB9002036E04FF001084FF616
:205C3000FF7AA5F808A0284601F00AF8041C11D0284601F067F90426B44205DD284600F015
:205C5000FFFFB61CB442F9DC2E89284600F0F8FFB04205D17F1EBFB224B1002FE1D101E020
:205C70004FF00008B8F1000F04D1686801F0E2F9002009E024B9686801F0DCF9012068811E
:205C90006889A9F800000120BDE8F0872DE9F8438946044601266068216801F0BFF94FF655
:205CB000FF78A4F80880204600F0CAFF071C24D0204601F027F90146484601F0B5F918B34D
:205CD0000425AF420FDD204600F0BAFFADF8000069460122484601F0BFF918B1AD1CAF426E
:205CF000F1DC00E00026484601F0AAF950B12589204600F0A5FF854202D1002FD1D104E0A7
:205D1000002602E0002600E00026606801F092F93046BDE8F883FEE738B50446012001F037
:205D3000A3F808B1002032E01B484FF00212A0F10C010A606168A0F1080211601449343871
:205D5000026811430160A06800250580012001F08BF820B1A168E08909888842F6DC01203C
:205D700001F082F820B1012001F00EF928460EE04FF0004001F078F808B1284607E0054926
:205D900008686268096828468A4200D1012038BD010000803CB70F403CB70F4070B50546B2
:205DB000012001F061F808B1002031E01B4C1949A4F10C0001602868A4F1080108601648BF
:205DD000A4F134010A6810430860A86800260680012001F049F820B1A968E88909888842FF
:205DF000F6DC012001F040F820B1012001F0CCF830460DE04FF0004001F036F808B13046A0
:205E100006E02068296822683046914200D1012070BDC04601000200010000803CB70F40B5
:205E300070B50E460446194919481A4D2288012A13D1616000F0ECFE28460F3800F0E8FE86
:205E5000012000F0DBF940F2014000F0D7F94FF04020032101F04CF80FE0616000F0D8FEAC
:205E7000284600F0D5FE0C4800F0C8F90B4800F0C5F90B48302101F03BF86068A1683246CA
:205E9000602300F08DFC012070BDC04600C0004001000010100000201D1004001D140400FB
:205EB000004002402DE9F04106461D4D2F684FF0A530286000F020FB00F0004200F07F0173
:205ED00000F4407006F0004840F27F343440B2EBD87F0ED104F07F028A420AD104F44071DF
:205EF000814206D106F4401006F44021FFF790FB0FE00C48001F016821F00201016006F498
:205F1000402106F44010FFF783FB40462146FFF787F806F4403000F045F82F60BDE8F081B4
:205F300080B90F4004B80F401D49042831D005282AD0062823D019490F281AD0102801D354
:205F50002F2810D9302801D34F2807D9502824D350380122091D82400A601EE03038012279
:205F700082400A6019E010380122091F82400A6013E0F439086840F0020008600DE00868A6
:205F900040F48020086008E0086840F40030086003E0086840F480300860704704E100E076
:205FB00024ED00E02DE9F04707461B48D0F800A04FF0A5318146C9F80010184C206800F0F2
:205FD000030006042546A8461CE0B6F5403F10D1206820F0010040F00200C8F800004FF476
:205FF000003607F4403086420CD00F2001F096F808E02868391461F301002860206800F084
:206010000300060407F440308642DED14846C0F800A0BDE8F087C04680B90F4050B80F409A
:20603000002213460A46194671B510F0030F0BD0002A82BF00F8011BB2F1010210F0030FDC
:20605000F6D1002A08BF71BD11F0FF0141EA0121042A18D341EA0141082A0FD30E46102AD4
:2060700008D30C460D46B2F10F0312F00F0272C0103BFCD812F0080F18BF42C012F0040F70
:2060900018BF40F8041B12F0020F18BF20F8021B12F0010F18BF017071BDFEE72DE9F041EF
:2060B0001F4616468846054600243480286900F0CFFE08B9204626E01549E868A1F114024D
:2060D0001268904203D00420287620461BE00F480268974203D204202876204613E000687C
:2060F0003080204606E06A6832F8102028F81020401C80B232888242F5DC08390C602869FD
:2061100000F03AFF0120BDE8F081C04624B70F4034B70F407CB54FF00046012044F6221161
:2061300055220223009600F0B3F9154C20684008FCD22068000801D2124D01E001201DE0C1
:20615000012044F632110222334600F073FB20684008FCD22068000801D301200EE005F18F
:206170002C00006810F0550F01D0002006E00020C10AE5D1401CC10AE2D1FBE77CBDC046A4
:2061900010B70F4010B70F4010B504462078401E2ED0401E16D0401E2ED16068E168884244
:2061B00006D32069A8B9042020700020A08223E0E068401EE060E0682169007800F008FEED
:2061D000206119E0E068007860B16068E168884204D3052020700020A0820DE0E068401E28
:2061F000E06009E04FF0FF3020610320207003E0A068E0600220207010BD7047B0B5C0F34B
:206210000743184A184C1268012101FA03F5154202D154F8333004E0042202EBC3022346D1
:206230009B58C0F30724C0F303173FB9A2089140D3F830258A43C3F8302506E0A2089140DF
:20625000D3F830251143C3F83015D3F82C250F2100F00F00A140A0408A431043C3F82C05A2
:20627000B0BDC0466CE00F40948600207CB54FF00046012044F6201114220223009600F0A3
:2062900007F9154C20684008FCD22068000801D2254601E001201DE0012044F63011022262
:2062B000334600F0C7FA20684008FCD22868000801D301200EE005F12C00006810F0140FDE
:2062D00001D0002006E00020C10AE5D1401CC10AE2D1FBE77CBDC04610B70F401448B0B564
:2062F000B0F1FF3F01D000F035FA124D1248A84210D01248124CA0420CD0001BC71054F888
:20631000040B10F8011B55F8212054F8041B90477F1EF4D100F0BBF80A4D0B4CA54205D0FB
:2063300002E054F8040B8047A542FAD1B0BDC046FFFFFFFFD4930020DC930020F49300206B
:20635000DC930020000000000000000001684A880168098801EB0241164A8A4201D000201D
:2063700026E00168CA880168898801EB0241012901D000201CE001684A890168098901EB69
:20639000024141600168CA890168898901EB0241816001684A8A0168098A01EB0241C16039
:2063B0000168CA8A0168898A01EB0241016101207047C0465555AAAA10B50446E08E021395
:2063D00082EA211292B21648E38E30F8122082EA0312E286E38E01F00F0282EA233292B240
:2063F00030F81220E08E82EA0012E28694F833201219917294F83310491C84F8331094F853
:20641000330029280ADB204600F03AFD6068FF2100F0EBF96068FC2100F0E7F910BDC04632
:20643000A88F00202DE9F041054615F8017B90460E461CE0B8F1000F05F101050BD0FF2CFA
:2064500009D8022015F8011B401E41EA0424F9D101E0042C02D315F8011B00E039463046A1
:206470002246FFF7E1FDA61901E006F8010B15F8010B8742F9D115F8014B002CE9D115F82E
:20649000010B2C7800022418D4D1BDE8F0817047F8B59C46069C174BA3F12C052D6844EA71
:2064B00000062E421ED1104F104E114DBCF1010F09D0BCF1020F0ED14FF00A0CC7F800C045
:2064D00031602A6007E04FF0090CC7F800C031601104090C2960343B1968084304431C6095
:2064F000002000E00120F8BD30B70F4034B70F4038B70F403CB70F4010B5144A14684FF0E8
:20651000A5301060124901F10800006800F00300000501F10C031B6803F0030340EA834007
:2065300001F14C031B6803F0030340EA03400B6803F07F030343086800F440701843091F5C
:20655000096840EAC170146010BDC04680B90F4004B80F40530803D3D0F80C350B4302E01B
:20657000D0F80C358B43C0F80C35930803D3D0F810350B4302E0D0F810358B43C0F81035B5
:20659000130903D3D0F81C350B4302E0D0F81C358B43C0F81C3522B1D0F8282522EA0101CA
:2065B00002E0D0F828251143C0F82815704738B51446054600F0A6F81CB12146284600F022
:2065D000A1F8298F284600F0E6FB6868FF2100F00CF924B96868FE2100F007F903E06868C7
:2065F000F32100F002F94FF6FF7028876868002100F0FBF86868FF2100F0F7F86868F421A1
:2066100000F0F3F838BDF8B51F4615460E460446FFF7ECF8B4F93C0010B1608FB84201D051
:20663000002019E001272F8094F833000019807A308008E0204600F06BFB298826F8110054
:206650002888401C2880204600F066FC0028F1D1204600F015FC3846F8BD00002DE9F843E9
:20667000174688460646114D00244FF0004904E07069401C7061641CA4B2A74201DC0120E2
:2066900012E0CDF80090716938F814200120034600F0F4F808B1002006E028684008FCD2BA
:2066B00028680008E4D30020BDE8F88310B70F4000BF704708B5FFF7FBFFFEE738B50D4CD7
:2066D0000546A06820B10C48B0F1FF3F00D080470A4800688047606810B10146284688472E
:2066F000206800B18047064800688047FFF7E2FF38BDC046C88F0020FFFFFFFFD48F002045
:20671000D88F002038B50D460446FF2D03D16068FF2100F06AF8208F001380EA251080B28B
:206730000B49228F31F8100080EA02102087228F05F00F0080EA223080B231F81000218F5C
:2067500080EA011020876068E9B200F04EF838BDA88F0020F8B506460F4D104F738800244F
:2067700017E0A00000EBC400321851689068D26852B9AF420BD00A7855F822200346491CF8
:2067900008461946904701E0FFF7A2F97388641CA4B2A342E5DCF8BDD4930020DC930020B1
:2067B000F8B51F4615460E46044600F003FBB6EB051F04D3206B20F02000206304E0206B87
:2067D00040F0200020636D08F000B0FBF5F0401C40088109616200F03F00A062E762002056
:2067F000A061204600F0A2FBF8BD38B50D460446E088A188884207D100F096FC01212181DD
:2068100000F064FC002013E000F08EFCE168628855546188491C6180E1886288914201D188
:2068300000216180A188491CA18000F04FFC012038BD000070B5104DA5F12C04246843EA45
:206850000006264213D10B4C012A04D0022A04D10822226001E007222260A5F10802116036
:20687000343D2968084303432B60002000E0012070BDC04630B70F403CB70F40F8B5069CCF
:206890000F4EA6F120052D6844EA00072F4213D10A4D012B02D006232B6001E005232B6013
:2068B000331D196006F108010A60283E3168084304433460002000E00120F8BD30B70F4064
:2068D00030B70F4080B50246002008801788C7B15288042A15D144224A808880C880094A75
:2068F0001368C3F307430B81131D1B68C3F307434B818881106800F0FF00C881072008809A
:20691000012080BD00E00F4080B50C4920390F686FF35E0777B90A491122091F0A6009491F
:20693000091F0860084804492838026811430160002000E0012080BD0100008030B70F4086
:2069500034B70F4038B70F4030B70F4098B500220A8007880FB9104615E04388012B01D016
:20697000104610E08288084B12041A60C2881C6812191A6041224A8082888A80C088C88090
:2069900003200880012098BD308A00200C4885460C4885446F4607208743BD460A486F4600
:2069B0000760FFF72AFC00F0DBFB002801D0FFF795FC00F07DFA0120FFF780FEFEE7C04617
:2069D000608A002000030000DC8F002038B50D460446A08808B9002016E000F0A5FB02B242
:2069F0002188E068085C28702088401C2080E0882188884201D100202080A088401EA080E3
:206A100090B200F063FB012038BD00000D4908684FF6FF724263086800F52270026822F02C
:206A3000070242F0050202600A680020C2F8A402096801F522710A6822F0070242F00202F3
:206A50000A607047D889002070B50A4B0A4A1C68A2420BD00025962D07D2084C54F825608D
:206A700042F825606D1C962DF8D31A6042F8201070BDC04608ED00E000900020608D002087
:206A9000086006484860064888600648C86006480861064848610648886170474971002066
:206AB000557100205171002009710020D56C00204D7100202DE9F0411E4617460D46804604
:206AD0007FB1012406E035F81410404600F063F9641CA4B2A742F6DC2978F2B24046FFF7F6
:206AF00066FD0120BDE8F081086006484860064888600648C86006480861064848610648E6
:206B100088617047157100206D6600206171002059710020657100205D71002010B53C2942
:206B300001D2002012E004460020207404F11200A0600120E0811C2104F1200000F0ABFAF2
:206B5000E061E1692046FFF7CFFF204610BD00000A1382EA201293B2084A32F8133083EA11
:206B7000011189B200F00F0080EA213080B232F8100080EA011080B27047C046888F0020F1
:206B9000530803D3D0F800340B4302E0D0F800348B43C0F80034920803D3D0F82024114302
:206BB00003E0D0F8202422EA0101C0F820147047242901D200200EE0074901600749416055
:206BD0004FF4806101814FF40031C160012101614FF000414161704700F8072000F00720D7
:206BF00010B5094A13684FF0A53111600749040F51F82440C0F304410004000C8840216803
:206C100081432160136010BD80B90F401C87002010B509490A684FF0A5330B60074C030F24
:206C300054F82330C0F304440004000CA0401C68204318600A6010BD80B90F401C870020D9
:206C50001CB5044660680122694600F0FFF9BDF8000021890012FFF77BFF208121899DF8C6
:206C70000000FFF775FF2081BDF800001CBD1CB5044600F081F808B900200DE020464FF470
:206C900080616A46FEF7BAFF08B9002004E0BDF900000028F2D001201CBD000008B507483A
:206CB000012100F059FA064908884FF6FE72824202DD0888401C088008BDC04600000340A6
:206CD000E08F002038B500230CE0046824882506241204EB154421F813400468A41C04605C
:206CF0009B1C9BB29A42F0DC012038BD10B50C460346FFF72BFB28B9002120460A4600F09E
:206D1000F5F904E0D9681A69204600F0EFF910BD90F834104A1C80F834200918897A0A0294
:206D300090F834104B1C80F834300918887A801880B27047074A030F52F823201268002105
:206D5000C0F304430004000C9840104200D00121084670471C870020C368064A1A40C2603E
:206D70000A0E026001F0FF024260C1F3072181607047C046FEFEFFFF38B50446002565813F
:206D90002168606800F04AF908B1012002E001202073284638BD38B50C4605461FFA94F164
:206DB000FFF7B0FC04F0FF0421462846FFF7AAFC38BD000081690909FCD2C16A21F01001AD
:206DD000C1620249026B114001637047FEFCFFFF08B50346181180B2C0B200F075F80146ED
:206DF00003F00F0000F070F808BD81684268914203D001210170818203E0042101700021FB
:206E1000818270475C2901D2002007E000210180418001824FF0FF3242658165704710B5EA
:206E30000C46406800F0B8F800B2002801D5002001E02070012010BD1C2901D2002006E05B
:206E50004FF0FF3181600021C1600182018370470449091D0968084201D1002000E00120B1
:206E70007047C04600B70F40044910310968084201D1002000E001207047C04600B70F4040
:206E900000218187018180F8331080F834104FF6FF71C18601877047442901D2002006E03F
:206EB0000021C187FF21A0F84010FFF7E9BF70470449B1F1FF3F07BF0020011C0868091D36
:206ED000FEF786B9FFFFFFFF0A0F40EA0110024951F8221048407047108F002002780121BE
:206EF000042A03D00078052800D000210846704710B50C460222FFF743FE0A222146FFF7EB
:206F100029FB10BD38B50546FFF79AFE04042846FFF796FE001938BD90F8332090F8340005
:206F30000021824200DD012108467047C16A41F01001C162026B40F2013111430163704788
:206F50000349086070470249091F086070477047D88F0020B0F93C201AB1408F088001209E
:206F700000E00020704711F0FF0F00D0826211F47F4F00D0C2627047024A11680843106089
:206F90007047C04600B70F4002490C310A6810430860704700B70F408169490902D34FF05C
:206FB000FF3000E000687047102901D2002001E00021C180704700780021042800D10121B5
:206FD0000846704740F201121140C2681143C1607047D0F80320C31D08461946FEF778BD0E
:206FF000002101804180818001817047EFF3108072B6704700207047EFF3108062B670477B
:207010000020704700F11A01C16101210184704701230382416552188265704708B50246A1
:2070300010681269904708BD08B5024610685268904708BD08B5014608688969884708BDE4
:2070500008B501460868C968884708BD08B5034618685B69984708BD08B5034618689B6870
:20707000984708BD05210170002181827047102901D20020FFE7704708B5FFF7B7FFC0B246
:2070900008BD08B5FFF7B8FFC0B208BD082901D20020FFE770471C2901D20020FFE77047E4
:2070B0000C2901D20020FFE7704782699209FCD201607047C160C280FFF792BF4160826062
:2070D000C3607047016042608361704708B9FFF7D8BF704782691143816170478069C0F3AF
:2070F000C0007047806800F0010070474160826070474160026070470160012070470160EB
:20711000426070474161012070470180826070474068FFF7CABF4068FFF7E0BF401EFDD1E2
:2071300070470122FFF77EB9FFF7A6BF01607047008B7047002070470020704701207047FD
:207150000020704700207047002070470020704701207047002070474162704701607047A2
:047170000120704743
:2071740000240000B3F08AA9C2C48F000144A8A907308AA9CCC4FFF8500296C49A00000619
:20719400021A761F02F7983F00240000B1A0D1026F02D10179E356BF04C36F42B60372A714
:2071B400A0A90DA71EA7AAA927CF0DA41EA7DC6F00240000B480400002001ED1FE828BBE9D
:2071D40000061EA6020A0FA66903D4006F010006A0C40006C4C4ED6800240000B4E03E67B6
:2071F40000061EA6020E0FA66903D4006F0A020019011EE402001EF4D0082B94D00C561820
:2072140000240000B740C141C0420644CFAACEABFF5A06427620994198420644CBAACAABE0
:20723400FF5A064276201C6500240000B640CCA7000FFFDB70A858A9560304A670940006E6
:207254001EA628AC001C562229018F40BE102A1800240000B2A0A000A842A0A98A0276405A
:20727400B132FE840006FE028F00BD80761F02F48F40BD819A28EE6D00240000B1E06F08E2
:20729400D00956BF019256BF50CB56BF01C3D00200C0B76F00061EA6020C0FA66903C69742
:2072B40000240000B4B007C41EA6020907C483A925C583A60DC51EF4020A07C41EA6020B02
:2072D40007C483A925C5CEAE00240000B050C5C43E67520060F88F2402149A0228A8803F4D
:2072F400C5C43E67520060F8761F01C01A1D277200240000B540AABDA2BDFE022901FF581C
:2073140061455CA8917F08A800801E4293A4FFD65CA8064E613B10CF00240000B79076004F
:207334000006761B2942561676256F009A0100060006FFF0BE00000000001021204209E0F1
:2073540000240000B0E07700FF6900063B10761F00331820FFFE2B222B242B262B282B2AA3
:207374002B2C2B2E2B308EAD00240000B1B0D00A3F97DC016FB4A2427640AAC36F3156BFC2
:2073940001C29B00D008929260029B01D0091DE000240000B360FFC75CA906917640B65A4C
:2073B400D0081E918AF1D008CCC400FF5CA906917640B65AD008862F00240000B510432F06
:2073D4006C039A036F26442F6C039A006F2292CDCAC5CAD5CADDCAE5CAEDCAF5CAFD99EF43
:2073F40000240000B520610E290125C50DCD8AA925D50DDDFF5A25E50DED1EA725F50DFDC6
:207414001EA67622A820644B00240000B750F341F242064471AA70ABFF5A06427620FF58E4
:207434006111D49D62050AA42901FF406F03756C00240000B45000301A140010761F003029
:207454001A0C0020761F00301A140020761F02F902001E1E1E26162D00240000B2609A009A
:207474006F1D761F0138061A96C3D00092A054C367088AC292949691D80192A054C319A425
:2074940000240000B1D05200600856BF01CAD1008AD27640B8096F032BCAD11056BF43CB8A
:2074B40079D356BF02C358E000240000B04001C056BF021B761A8F24021E9A03FF69C5C462
:2074D4003E6776228F2402149A019B08FF69272D00240000B33001946F0556BF04C4D00AD1
:2074F4002B9400069A0193C45304610593C4530561029A000006ECE800240000B580A9A9D3
:20751400FF46917F5BA85AA925A695A7FF960CA295A3FE8282BE86BE8BBE8EBE0006E55E98
:2075340000240000B3701E916F1B8AF192C4610D06D10FF1680656BF05C1D00A2B916F1043
:207554000201564100F101AF0008000000000040B598362200240000B850761AF6077700BF
:207574009A00FF690006761F010C1800FFF0F6077700FF690006761F010CABA7002400004C
:20759400B7A03063408450A560C670E781089129A14AB16BC18CD1ADE1CEF1EFFFE0BE1066
:2075B4000000E1F9001A0000B860CC00FFF0500A9600F6077700FF690006B4E21FD9000090
:2075D40024BB00240000B71028AAFFFF28A9FFFF28A8FFFF0FAB6004BE00D4006F098AA905
:2075F40028A9FFFF88C428A8791200240000B680CEABCFAAFF5860039A006F029A0100064F
:20761400761F0138980099010006761F01389802361A00240000B0F02B322B342B362B3854
:207634002B232B252B272B292B2B2B2D2B2F2B312B332B352B372B393B8F00240000B1105B
:207654009C01528064FD761A761F00331A200001FF6900061EA6022E0FA66903D4006F0CE1
:2076740064A700240000B800B78A0000FFFEBE320000B78A0000000000007622761F010072
:207694001A2400011A20000349CE00240000B7F0BDFA00000001FFFEBDFC0000000000000A
:2076B400FFFEBDFE000000000000FFFEBE30000051B800240000B500761F002B1A2F8000A8
:2076D400761F4FFF8A38A33AC53CC43E761F002B462F6D039A036F2A1F8200240000B2B00F
:2076F400A8428A047640B23152006119761F02F52B008F00BD408F40BD80761F02F4A842D5
:20771400A42E00240000B31000301804FFEF7640B2827640B2A86FFE1EA6020C0FA6690308
:20773400D4006F0702001ED4BE5700240000B4C083A6D0080DC51E949A010006FE02A0ACD8
:20775400C5A47640B48F520060080200ABA4D50055BE00240000B1F0D4006F148F43FC00D6
:20777400A0C48F43F800A0D428E404008F420000A0F4D00802011E94298600240000B0606E
:2077940001001A1D02001A1D04001A1D08001A1D10001A1D20001A1D40001A1D80001A1922
:2077B400706B00240000B40007308AA98F40FFFFA0C48F000144A8A907308AA9BE00CCC48A
:2077D400FFF8500596C48F00AD9700240000B650560301A9560100A506A6FF33AFA470C58D
:2077F40071CD000680A41EA692A7FFC3900F5CA9A17F00240000B5C024A96303FF5C3B0424
:2078140059A9DF010009FFEC28A9FFFF28A8FFFF090161058F3FFFFFD3CE00240000B3B07D
:20783400FFFFA0C48F000144A8A907308AA9BE00CCC4FFF8500596C48F000152A8A90730E5
:207854009D4F00240000B8200FC4691428A9F08028A802FA0FC46906761F01001800F0FFF0
:207874006F18761F0100CC00579D00240000B4F02B9400061EC400061EA60644C2E407A641
:207894001EF4D0087D940006520861039A036F3A16ED00240000B7E000128000001100006E
:2078B40000118000001060000010400000102000001000000010FFFF21AA00240000B190E5
:2078D400AAA90DA51EA7D00A0E9780C60FA76007DE01DD0192A454A566EF6F06D1036F04EB
:2078F400947200240000B78092A87620761F02F8A8320006761F02F8A830000600067608E3
:207914003B3092BE000696BD1ED100240000B440020019011E12761F00302B0E2B0F761F1F
:2079340000302B162B17761F00301A0C0010761F2C8F00240000B6D008A80080FF362FA84F
:2079540093A4FFD65CA891FF08A8FF81640F08A8FFE2620F6106FF5DD70D00240000B6C08D
:207974003E67761F02F7063C61031EA73E677640B6A28BBE00062902FF58611B5CA8917F41
:207994005A2100240000B3201EE42BC4D00A2B9400060644A0D41EE4000606E40FD46107D6
:2079B40056BF01C4D00A56BF147D00240000B810761F01061800FFFD1800FFFE28A9A480B3
:2079D40028A807BF0FC4692228A94A8028A8055D0C0500240000B1805DC5D02CDD830DA53C
:2079F4000F92661BD100D50092A454A56919AAA90DA5090A1EA724C687A500240000B7200C
:207A1400FFFF09028AA992A67640B2D00006B2BDAABDA2BD7620B2BDAABDA2BD27AD56571F
:207A34000FC400240000B2509A006F2DD00806927640B67C5200610B0202761F01381E1EDF
:207A5400D00806927640B66BA85A00240000B66006A67640B6491EA6CCA7000F5CA906A637
:207A74007640B6490006761F0138980699070006598200240000B59093A6FF9608A87F7F65
:207A94006FF6FF2000006FF328ADBB00FF69561F5616561A2940761FC7C100240000B61033
:207AB400B6F46F1806E41E4206F41E4406D47640B6F46F1006E41E4206F41E4406D47640EC
:207AD40042BC00240000B020C5C43E678F2402169A019B08C5C43E67520060F98F240216C5
:207AF4009A0228A88000C5C4AE1300240000B4D01E427640B3256F08D0080697ABA41E420B
:207B140083F77640B325FE82000692D40006C5E4019600240000B1202BC42BCCD0082B94A5
:207B34000200D02A19011E940200D02C1E940006C4440646A0D4C2E4D6F800240000B6702D
:207B5400FF5A761F01380608CEABCFAAFF5860039A006F029A010006FF5A761F0138060453
:207B740079A300240000B3806F0C0200D00819011E9156BF03C16F0506E11EF156BF02C145
:207B94008BBE000600C0B727FBDA00240000B5B029046F0F9B0024A9DF016C04290424A82A
:207BB400DF011EA6F7A1248606A781A109011EA715D000240000B6E02DA893AA56226F0293
:207BD40093AA48A46C02FF540006FF200000000628A87FFF28A9FFFF523800240000B030D1
:207BF4003E67520060F8761AFF697640B0E37640B1077640B03E7640B09A00067622761F9C
:207C1400C58D00240000B09000101A1C10001A1C00011A1C0004761AFF690006762202003B
:207C3400761F017E1E061E0882EA00240000B0C001001A2400011A200003761F01061800A1
:207C5400FFFD1800FFFE761F0100CC00F0FF1AA99EB800240000B010FF69C5C43E675200C9
:207C740060F88F2402149A0228A88000C5C43E67520060F88F24022093B400240000B30018
:207C9400561700A4A9A97640B7581EA68F00BE6C9A0028A842C81E4206A67640B461761F4B
:207CB400A2A900240000B6A03FFE000677006F00B2BD761F02F759A9923A610D28ABFFFFB8
:207CD40028AAFFFF28A9FFFF187100240000B4208F000C00761F02F9A82C0200761F0030AA
:207CF40019011E022B062B071A0400101A040020424D00240000B5D07640B5EC761A764092
:207D1400B79928A9FFFF28A8FFFF0901610E76FFFFFF6F06DF01C3BD901F00240000B7D047
:207D3400FFE4BE400000E0000013C0000013A000001380000013000000138000001200009D
:207D540052F400240000B73000A03FAD7620B2BDAABDA2BD5AAD27AD565700A03FADAAABFE
:207D7400565D00A6A9A2762054B100240000B2C08A027640B13F761F02F592006108761FCC
:207D940002F48F40BD418A047640B207FE820006FA2B00240000B240761F01380F186103F5
:207DB4009A006F3992410EA90F1A670902011E1ED00806927640B66B87E300240000B47012
:207DD4008AC12BFC8AC11AE400108AC11AE400208AC118E4FBFF8AC118E4F7FF8AC11AE494
:207DF4005E8600240000B5702D4136A007AB37A105AB09406304FF4008A70001FF5A93A792
:207E1400651908A8FF0163110BEF00240000B5A000002902761B7640B797520061427622EC
:207E340028A9B79A28A800000901611B76C0B79AF97E00240000B39082A459A9D00A92932A
:207E5400610CD20092A154A269088AA37640B346DA0192A154A266FA2C2D00240000B83090
:207E7400F0FF1AA9010096006F10761F0100CC00F0FF1AA9020096006F08761F0100CC00A1
:207E9400A78900240000B770565D00A03FAD82BE86BE8BBE762097A69B00F60F1FA6762079
:207EB40097A69B00F60F1FA64C7300240000B620B6F46F0806E41E4206F41E4406D47640FC
:207ED400B6F488CAD90192A654A166C6FE8486BE747F00240000B2009A0028A88000D00A0C
:207EF4001E940006000600C0B72759A982A586A4D00806927640B67C32F900240000B3C0A5
:207F14008AA9C2C48F000144A8A907308AA9CCC4FFF8500296C48F000144A8A907308AA943
:207F3400C1A700240000B6B028A8FFFF0FAB6103767FFFFF761F02F8C5303E67761F02F7A5
:207F5400C53E06A7610392A1113A00240000B0A01E161E181E26761F01BE1E061E361E3837
:207F7400761F017E1E0A1E1A1E2A761F01BE1E0A44E600240000B4100152A8A907308AA995
:207F9400C2C48F000144A8A907308AA9CCC4FFF8500296C49A000006660700240000B7C0DD
:207FB400EDB82608F00F22C9D6D62F8ACB612B4B9B64350C86D331CDA00A3C8EBDBD384FDD
:207FD400845F00240000B17006A697D37EDB76C0FFFD92A42BAA9EC527A906A70FAB602798
:207FF400D02A06A60F926821554400240000B5F088CAD1006F392901560303A107A2090295
:208014008AA992C461039A026F029A00B60093CCAA4800240000B4300200761F02F91E2ECB
:208034008F000C08A81C8F000C10A824761F003019011E0A761F0030F09D00240000B150D0
:208054006168D00992925201616092CD5223610B56BF7FCB92CD96D356BF11DB56BF03C3EF
:208074003CD200240000B2D0B2BDFE027640B0008F010000A8A97640B688D1008F0200012B
:20809400761F0138060840A9E8EA00240000B07001001A1D00011A1D00021A1D00041A1D0D
:2080B40000081A1D00101A1D00201A1D00401A1DB4B400240000B490290183C428AB55559A
:2080D40028AAAAAA25CE0DC50FAB61039A006F2AC4C483C425DEBE01DF9000240000B56017
:2080F40018A500FFDCFF92A494A596A7642F08A9FF0162272D4236A037A1FF4F07ABFF5AE6
:20811400987600240000B690990300061EA68F03F800A8A90FA6660606A6FF30FF1F400038
:208134006F0506A6FF30FF1F76C500240000B3E0FFF8500296C48F000144A8A907308AA99A
:20815400CCC4FFF8500596C48F000162A8A907307FB500240000B5E01EA73E67C5BE24A9B4
:20817400DF0124A8FF5860F77640B70E7640B6A4B2BDAABDFE0486A4D17300240000B6F0F6
:2081940048A46CF7090100061EA78A440646520061049CFFF7A924845300611027462BAAED
:2081B400901400240000B280B76F0006FE048F00BD06020C7640B1EC761F02F4A8047640E3
:2081D400B2068F00BDC0022EAAC900240000B2F0B4E2761F02F4A80002001E42B2A9764022
:2081F400B4F27640B4208F0F4240B2AB0200F61FF54600240000B2300006D00200C0B72BEC
:20821400824C96418BA586A42BC3D00806927640B6705200610606F2391300240000B3A09D
:2082340000C0B76B000656BF05C4D00A2B9400069A000006021A761F02F707308AA98F4042
:20825400517A00240000B0003B1076260000762F00008F24021E9A03FF69C5C43E67762241
:208274008F2402149A019B0884AF00240000B3409A0093C4530460029A010006B2BD8BA4B0
:2082940092C15201613E520261265203603E06D152B400240000B0D003009600761F010601
:2082B4001A0000021A000001761F010CCC00FFF0500A9600761AF607050800240000B13087
:2082D4001EF400061EA60644D00856BF0194D02AC29407A6D02C1E94000692C40006D00203
:2082F40048E100240000B4600006B2BDFE028BA4C4481EE1C2F1C2427640B53E7640B6CBC3
:208314008AC11ED48AC12BF46EDA00240000B1001A2000012821FFFF2910FF6900068F00CD
:208334000D0076229A00528063078F40B792A084F1EA00240000B840F0FF1AA90300960030
:20835400761F01061A0000021A000001761F010CCC00FFF0500A96002AF800240000B2E011
:208374006C0AA8A90F1860078B1AB21E1A0600011A078000B2A961F18F00BD12020E76408C
:208394007E7200240000B760F61FFF7418A83FFF2901FF462FA893A4FF96CBAA000682BE4B
:2083B40086BE8BBE762027ADBB4600240000B6308BBE000688A880A992A6FFC770A7FFC328
:2083D40058A98F00BE00560304A6709488A993A63E2900240000B210520061039A006F1BA3
:2083F40092A154E269039A006F16D00054A069088AD292939694D80107A800240000B080B9
:2084140000801A1900011A2008001A2001001A2002001A2004001A1C04001A1C01001A1CF6
:2084340013F100240000B14000C0B72B824C86A42BC392C5FFE100A292CD5203FFE1008199
:208454005210FFE10094523E5F5500240000B4A00DD50FA661039A006F21C4C483C425EE6F
:208474000DE51ED4C4C483C425FE0DF51EE402085CC100240000B700565700A7A9A72484C0
:20849400DF0128A9FFFEF7A9248408AA0001FFD0EDF6000628ABFFFFAC3800240000B2904C
:2084B4007640B11A761F02F4A802020083001E421E447640B12C8F000D3A761F02F48F40E8
:2084D400DB1200240000B60056B001A794A7611F520161155202610B5203602106E41E42AF
:2084F40006F41E4406D47640BB3F00240000B0B01E3A761F017E1E021E041E121E141E22AE
:20851400761F01BE1E02761AFF6900067622761F5E5E00240000B3500FF16809D0080691E5
:20853400602456BF04C1D00A2B916F330201564100F18AF1D00892C42A9B00240000B7B00D
:20855400000000001DB704C13B6E098226D90D4376DC13046B6B17C54DB21A8650051E4777
:208574004CD200240000B530A922C324C226761A452F6C039A006F029A03FF690006D00CC1
:20859400929400063ABDB2BDA78200240000B27068FA0200761F01381E1ED008A392D00A71
:2085B4000692CAABCBAA7640B66B9A01D00200C0286100240000B160FFEF0088290125D5C9
:2085D4000DDD1EA6D40092C59CFD54A4690492A45220683A56BF63CBD17B00240000B1C042
:2085F400979206F261048AF27640B3A356BF7ECB56BF01C36F1E8AD2DD029A087640B4FC52
:20861400854800240000B22092A154A066FA06F2761F01381E100EA11E12D0080692764003
:20863400B6889A0100C0B76BA2F800240000B3D0CCC4FFF8500596C48F000160A8A907307C
:208654008AA9C2C48F000144A8A907308AA9CCC459D200240000B5505DA8917F08A8008095
:2086740059A858A993A5FFD65DA893A471A518A8010097A618A400FF5B6400001D0F0000E1
:20869400004000400080054000500040009005400060004000A005400070004000B00540F2
:2086B4000040024000C005400050024000D005400060024000E005400070024000F00540CA
:2086D40000D0034000000640001006400010064000200640002006400030064000300640C9
:2086F400004006400040064000500640005006400060064000600640007006400070064076
:1C871400008006400080064000E10F4004E10F4008E10F400CE10F4008E60F40A8
:208D6000608D002001500020AB600020C3580020275D0020275D0020275D00200000000023
:208D8000000000000000000000000000275D0020275D002000000000275D0020275D002043
:208DA000275D0020275D0020275D0020275D0020275D0020275D0020275D0020275D002093
:208DC000275D0020275D0020275D0020275D0020275D0020275D0020275D0020275D002073
:208DE000275D0020275D0020275D0020275D0020275D0020275D0020275D0020275D002053
:208E0000275D0020275D0020275D0020275D0020275D0020275D0020275D0020275D002032
:208E2000275D0020275D0020275D0020275D0020275D0020275D0020275D0020275D002012
:208E4000275D0020275D0020275D0020275D0020275D0020275D0020275D0020275D0020F2
:208E6000275D0020275D0020275D0020275D0020275D0020275D0020275D0020275D0020D2
:208E8000275D0020275D0020275D0020275D0020275D0020275D0020275D0020275D0020B2
:208EA000275D0020275D0020275D0020275D0020275D0020275D0020275D0020275D002092
:208EC000275D0020275D0020275D0020275D0020275D0020275D0020275D0020275D002072
:208EE000275D0020275D0020275D0020275D0020275D0020275D0020275D0020275D002052
:108F0000275D0020275D0020275D0020275D0020D1
:20925800F8B502461C4C25684FF0A53020601E4901F14803186840F00100186001F1400376
:20927800186840F003001860144B00201860144F1668B74209D9134E1268964201D9086003
:2092980006E04FF480720A6002E04FF400720A60196841F001011960196841F002011960D5
:2092B8000A4A0A21116025600146072903D200BF491C0729FBD3F8BD80B90F4000A30F4084
:1092D800804A5D0580F0FA0200A00F4000A60F400A
:2092E8000002020400B71DC1046E3B8209D926430DDC7604136B6BC517B24D861A055047EC
:209308001EB8ED08260FF0C922D6D68A2F61CB4B2B649B0C35D386CD310AA08E3CBDBD4F8F
:209328003800C027000080270000402700000027000000260000002500000024000000233F
:2093480000000022000000210000C0200000802000004020000000200000002110422063CC
:20936800308440A550C660E770088129914AA16BB18CC1ADD1CEE1EFF100002110422063E5
:20938800308440A550C660E770088129914AA16BB18CC1ADD1CEE1EFF102080001000000B0
:2093A8005F6F00205F6F002002060002000000000001010003300001000000000000000089
:2093C80000010100025800010000000033710020E36F0020E8920020108F0020B89300202E
:0C93E80030870020C89300200090002077
:00000001FF
