:020000042000DA
:0650000001F018BD70472D
:205030002DE9F04FADF1140D0C4605464FF0000BCDF80CB0052702F077F8049001F0A8FA30
:2050500000F07F0100F4407200F44013019300F440200290774E280805D2306820F00200F3
:2050700030600120E2E07A4820380068400C01D35846DBE07048036800934FF0A533036082
:205090006E4804F07F038B4208D0316821F00201316001460B6864F306030B6004F44071C3
:2050B000914209D0316821F00201316001460A68201260F309220A602808C0F0A880306883
:2050D00020F0030040F001003060142002F08CF85846014600F0D4FA5B4D5C46D9464FF0F7
:2050F000010A31E0C6F80090142002F07DF8C6F800A01BE0082001F069FE50B14FF08040C2
:2051100002F056F828B14FF080404FF0FF3102F08EF84B4801F05AFE40B1404602F048F8FB
:2051300020B140464FF0FF3102F081F828684008E0D3642002F058F82868800802D3042CC0
:2051500000D13727641CA4B2DFF8F880A742C9DC3B4801F03BFE3D4C051C03D1384801F0C1
:20517000A3FD04E0206803904046D0F800B0404601F0C4FF01F0C8FF0028FBD0404602F025
:2051900036F801F0C1FF0028FBD0404601F0EFFF01F0BAFF0028FBD040464FF0FF3102F044
:2051B00046F801F0B1FF0028FBD0404601F0DAFF01F0AAFF0028FBD0404601F0F5FF4FF482
:2051D00040104FF4002100F05BFA306840F0020030604FF0FF31404602F029F81DB918482E
:2051F00001F04AFD13E001F08FFF0028FBD0404601F084FF01F088FF0028FBD00398206082
:2052100001F082FF0028FBD04046C0F800B0C82001F0EAFF0198029900F032FA049808B9BC
:2052300001F087FF044800990160012005B0BDE8F08FC04600B80F4080B90F4004B80F4007
:20525000001010000010004008B80F400810004050B80F402DE9F0414D484C4E3060306872
:205270004FF00008A0F808804A494FF0A53008604D4C2046000A01F0FFFC082001F0FCFCA2
:20529000454800F099FE01F04FFF45481C2101F01FFE424A1060434F10683946424601F0D5
:2052B000AEFF204601F000FD404C2221204601F09FFD42F21070FF21B7FBF0F2204601F05C
:2052D0009EFE2046012101F067FF3949232001F007FC232000F0E4FB2046FF2101F0BEFE45
:2052F000344D4FF41650286034480C2101F030FF314C2060206801213A4601F06CFF206818
:20531000296800F017FE2E492868086000F00AFB01F00FFF30680089002833D12949A1F133
:205330002802106840F00100106008684008FCD326481C2101F007FF234C2060254808216C
:2053500001F0FCFE224908600868216801F0E4FB2248102101F0E3FE1F4D2860204A216862
:20537000286801F02CFF20483C2101F023FC1D4C20602B6820683946424601F005FF206814
:2053900000F032FB00F032F8FCE7C046F48A00201050002080B90F400A000380FC8A002004
:2053B000648A002000E1F5050100101000000340456D0020F88A0020248B0020DC8A0020C7
:2053D000F08A002088B20F40208B0020808A0020088B0020E88A0020008B0020AC8A00205F
:2053F00048720020148B0020048A00202DE9F8434B4D2868694601F035FB4A4C80B19DF8B1
:205410000010206801F0EAFE2868694601F02AFB0028F4D12546286801F0E3FE0028FAD109
:20543000424D414E2868316888420BD0206801F0D8FE0028FAD120462968006800F07AFD68
:20545000286830602068694601F035FD28B138489DF80010006801F014FA364D2868364FC5
:20547000DFF8D880364E374C008960B9386841463246282300F05EFE28B13288206841466C
:20549000012301F063FB206800F0E8F920680DF1020101F0ABFD00283FD0BDF80230206868
:2054B0004146324601F0FBF82749304601F09AFADFF89C9050BB304601F050FAF0B9BDF871
:2054D000020050B1401E28D12868008928BB32883868414600F036FB1FE000200D4628804A
:2054F0001A48006831462A4600F034F8BDF8023020682A88494601F029FB0EE00A88BDF8D5
:2055100002302068494601F021FB06E00A88BDF802302068494601F019FBBDE8F883C04684
:205530001C8B0020248B0020F08A0020F88A0020188B0020F48A0020048B00201E890020B2
:205550001C8900200C8B00206E890020108B002070890020F8B51746044600253D8008880E
:20557000002800F08C804888C01E6FD00D3800F081802E385AD0B4F91200012852D048886A
:20559000232808D07F2078804888B8801120F8800320388073E088880004CA881218284664
:2055B0000B88DB1E834201DD20282BDB63237B80130CBB80FA800B88DB1E83421DD1636DFA
:2055D000934218D80988A36D5118C91E8B4212D3294602E0921C491C89B288420EDD04EB10
:2055F00041039B8A138004EB410316889B8AB342F0D0032502E0022500E001253D810420DB
:2056100038803CE001EB40031B891E0601EB40031B891B1203EB164304EB4006B382401CA2
:2056300080B2BDE7204606F03BF828E001262680B4F9100000B935466582E06810B1E068F7
:2056500001F068FD7E2078803E8018E06068091D082200F09FF828B901206080606803F05C
:205670005DFE01E06580102543207880BD800220388004E001206082502179803880F8BD94
:205690002DE9F84F0F4606463F48016800914FF0A53101603D4C206800F003008504B7F1D0
:2056B000FF3F26D0A046C146CA461EE0B5F5002F11D1D9F8000020F0030040F00100CAF819
:2056D00000004FF4802507F4402085420DD00F2001F08AFD09E02068B91461F30100C8F8D9
:2056F0000000206800F00300850407F440208542DCD1274D286800F003000705B6F1FF3FDF
:205710003CD02C46A046C146CA46D34632E0B7F5401F20D0B7F5001F11D1DAF8000020F049
:20573000030040F00100CBF800004FF4801706F4401087421ED00F2001F056FD1AE0D8F84A
:205750000000311561F30100C9F80000286800F0030007050EE0286820F0010040F002008D
:2057700020604FF4001706F44010874202D00F2001F03AFD06F440108742C8D10248009974
:205790000160BDE8F88FC04680B90F4010B80F400CB80F40F8B5082A01D0032057E02C4F2F
:2057B000D7F800C0002038602A4E4FF4004232604FF400121568284A131F1C681368121D5F
:2057D0001268B646DEF800600096C7F800C0009E360B01D203203AE0009EB60901D30320B5
:2057F00035E0009E360A32D20F884E883E438F883743CE883E430F8937434E893E438F89CA
:205810003743CE893E430FD00A8812044D88AD188A881204CC88A4180A8912044B899B189D
:205830008A891604CA8992197646A6F180010D60A6F17C010C60A6F178010B60A6F17401E5
:205850000A60316800910099890A00D20320F8BD00A30F4080B40F40080020007CB50446B6
:20587000002501261CE06068FF2101F00AF86068FD2101F006F8204601F04EFB10E020462A
:20589000FF2100F0E5FD25810AE09DF80000FF2805D09DF80010204600F0DAFD00E026818C
:2058B0002068694601F0DEF8002839D0B4F93C00002835D1B4F908000128E6D19DF8000068
:2058D000FF28DCD09DF80000F428D4D0E08E0028C9D19DF80000FE2803D09DF80000F32822
:2058F000C9D19DF80000FE280AD094F83300001F84F8330094F833000019C07A608705E0FE
:20591000658794F83300C01E84F83300E08F618F8842B0DCB4F84000618F8842ABDBA68731
:205930007CBDFEE738B520480068008940B92048242101F089F91D490860086801F0AEFB02
:205950001D48102101F07CFB1A4D28601C48102101F076FB194C20601A492868642201F004
:205970000BFC19492068642201F006FC1848442101F0DEFA1549086008682268296801F0DD
:2059900024FC15485C2101F089FA124C20601349206809680022134601F0F2FB1049114A49
:2059B000206801F081FB38BDF48A0020048B0020408A0020188B0020BC8A00201C8B0020C6
:2059D000CC8A0020F88700205C8800200C8B0020C0890020108B0020C0880020FC8A0020B5
:2059F00000A00020EE1A000010B504462849086820F480300860086840F480300860274987
:205A1000081D00688008FBD300F07CFC00F0CEFB204801F005FBA06901F075F918B90120BF
:205A30002074002033E0A069E16900F0B9F918B90220207400202AE0002000F0B1FF1648CB
:205A500001684908FCD20068000803D30320207400201CE04FF4803001F046FA0028F9D080
:205A70004FF4803001F0D4FA606838B1204600F0DDF918B904202074002008E0204600F0A0
:205A900017FA08B1012002E004202074002010BDC0B80F400100008010B70F403CB70F40E4
:205AB0002749042845D005283ED0062837D023490F282ED0102801D32F2824D9302801D388
:205AD0004F281AD9502801D36F2810D9702801D38F2807D9902830D390380122091D8240EF
:205AF0000A602AE07038012282400A6025E050380122091F82400A601FE03038012208395C
:205B100082400A6019E0103801220C3982400A6013E0FC39086840F0020008600DE00868E5
:205B300040F48020086008E0086840F40030086003E0086840F48030086070470CE100E0D2
:205B500024ED00E0B0B517460D4604460FB9012045E02089B84203DA0320207600203EE060
:205B7000206901F0CDF918B101202076002036E0002006E035F81020216821F81020401C8E
:205B900080B28742F6DC1648E168021F116007602C3821690268114362690A430260E06919
:205BB00000250580206901F0ABF920B1E169208C09888842F6DC206901F0A2F930B1022001
:205BD0002076206901F02CFA284608E0606901F097F918B104202076284600E00120B0BD80
:205BF00034B70F40002A4AD05FEA000C8B071CD1830722D1102A08D370B4103A78C978C0CA
:205C1000103AFBD270BC103238D0042A2CD3082A05D30C2A24BF08C908C008C908C008C994
:205C300008C092072AD0920F22E00B780370491C401C521E22D08B07F7D1C30714D18307AA
:205C5000D8D0121F12D308C903801B0C4380001D121FF8D20AE008C903701B0A43701B0AF5
:205C700083701B0AC370001D121FF4D2121D05D00B780370491C401C521EF9D16046704763
:205C9000224B18684FF6FF714163186800F52270016821F0070141F00501016019680020EC
:205CB000C1F8A402196801F522710A6822F0070242F002020A60196801F522710A6822F0B0
:205CD000070242F005020A601968C1F8C002196801F522710A6822F0070242F002020A60D5
:205CF000196801F522710A6822F0070242F005020A601968C1F8C402196801F522710A68DE
:205D100022F0070242F002020A607047A08A00202DE9F04791460F460546B5F90A0018B172
:205D30000120A9F8000039E00FB9002036E04FF001084FF6FF7AA5F808A0284600F0CCFF06
:205D5000041C11D0284601F029F90426B44205DD284600F0C1FFB61CB442F9DC2E892846CF
:205D700000F0BAFFB04205D17F1EBFB224B1002FE1D101E04FF00008B8F1000F04D1686859
:205D900001F0A4F9002009E024B9686801F09EF9012068816889A9F800000120BDE8F0874E
:205DB0002DE9F8438946044601266068216801F081F94FF6FF78A4F80880204600F08CFFC5
:205DD000071C24D0204601F0E9F80146484601F077F918B30425AF420FDD204600F07CFF8C
:205DF000ADF8000069460122484601F081F918B1AD1CAF42F1DC00E00026484601F06CF9E9
:205E100050B12589204600F067FF854202D1002FD1D104E0002602E0002600E000266068BC
:205E300001F054F93046BDE8F883FEE738B50446012001F065F808B1002032E01B484FF066
:205E50000212A0F10C010A606168A0F10802116014493438026811430160A06800250580A7
:205E7000012001F04DF820B1A168E08909888842F6DC012001F044F820B1012001F0D0F852
:205E900028460EE04FF0004001F03AF808B1284607E0054908686268096828468A4200D1E2
:205EB000012038BD010000803CB70F403CB70F4070B50546012001F023F808B1002031E030
:205ED0001B4C1949A4F10C0001602868A4F1080108601648A4F134010A6810430860A868EC
:205EF00000260680012001F00BF820B1A968E88909888842F6DC012001F002F820B1012053
:205F100001F08EF830460DE04FF0004000F0F8FF08B1304606E02068296822683046914230
:205F300000D1012070BDC04601000200010000803CB70F4070B50E460446194919481A4D79
:205F50002288012A13D1616000F0AEFE28460F3800F0AAFE012000F09DF940F2014000F0C4
:205F700099F94FF04020032101F00EF80FE0616000F09AFE284600F097FE0C4800F08AF9D3
:205F90000B4800F087F90B48302100F0FDFF6068A1683246602300F04FFC012070BDC04643
:205FB00000C0004001000010100000201D1004001D140400004002402DE9F04106461D4DAB
:205FD0002F684FF0A530286000F0E2FA00F0004200F07F0100F4407006F0004840F27F3449
:205FF0003440B2EBD87F0ED104F07F028A420AD104F44071814206D106F4401006F4402146
:20601000FFF73EFB0EE00C49086820F00200086006F4401006F44021FFF732FB404621465F
:20603000FEF7FEFF06F4403000F008F82F60BDE8F081C04680B90F4000B80F402DE9F0477D
:2060500007461B48D0F800A04FF0A5318146C9F80010184C206800F0030006042546A84629
:206070001CE0B6F5403F10D1206820F0010040F00200C8F800004FF4003607F440308642D2
:206090000CD00F2001F0B0F808E02868391461F301002860206800F00300060407F44030BA
:2060B0008642DED14846C0F800A0BDE8F087C04680B90F4050B80F40002213460A46194648
:2060D00071B510F0030F0BD0002A82BF00F8011BB2F1010210F0030FF6D1002A08BF71BD80
:2060F00011F0FF0141EA0121042A18D341EA0141082A0FD30E46102A08D30C460D46B2F1F7
:206110000F0312F00F0272C0103BFCD812F0080F18BF42C012F0040F18BF40F8041B12F0C2
:20613000020F18BF20F8021B12F0010F18BF017071BDFEE72DE9F0411F46164688460546A4
:2061500000243480286900F0CFFE08B9204626E01549E868A1F114021268904203D0042043
:20617000287620461BE00F480268974203D204202876204613E000683080204606E06A6850
:2061900032F8102028F81020401C80B232888242F5DC08390C60286900F03AFF0120BDE83B
:2061B000F081C04624B70F4034B70F407CB54FF00046012044F6221155220223009600F08E
:2061D000B3F9154C20684008FCD22068000801D2124D01E001201DE0012044F63211022281
:2061F000334600F073FB20684008FCD22068000801D301200EE005F12C00006810F0550FB9
:2062100001D0002006E00020C10AE5D1401CC10AE2D1FBE77CBDC04610B70F4010B70F40CF
:2062300010B504462078401E2ED0401E16D0401E2ED16068E168884206D32069A8B90420E8
:2062500020700020A08223E0E068401EE060E0682169007800F008FE206119E0E0680078F9
:2062700060B16068E168884204D3052020700020A0820DE0E068401EE06009E04FF0FF302A
:2062900020610320207003E0A068E0600220207010BD7047B0B5C0F30743184A184C1268B7
:2062B000012101FA03F5154202D154F8333004E0042202EBC30223469B58C0F30724C0F337
:2062D00003173FB9A2089140D3F830258A43C3F8302506E0A2089140D3F830251143C3F894
:2062F0003015D3F82C250F2100F00F00A140A0408A431043C3F82C05B0BDC0466CE00F4023
:206310005C8700207CB54FF00046012044F6201114220223009600F007F9154C2068400816
:20633000FCD22068000801D2254601E001201DE0012044F630110222334600F0C7FA206840
:206350004008FCD22868000801D301200EE005F12C00006810F0140F01D0002006E00020F8
:20637000C10AE5D1401CC10AE2D1FBE77CBDC04610B70F401448B0B5B0F1FF3F01D000F01A
:2063900035FA124D1248A84210D01248124CA0420CD0001BC71054F8040B10F8011B55F807
:2063B000212054F8041B90477F1EF4D100F0BBF80A4D0B4CA54205D002E054F8040B8047D7
:2063D000A542FAD1B0BDC046FFFFFFFFBC940020C4940020DC940020C4940020000000009C
:2063F0000000000001684A880168098801EB0241164A8A4201D0002026E00168CA880168E2
:20641000898801EB0241012901D000201CE001684A890168098901EB024141600168CA8952
:206430000168898901EB0241816001684A8A0168098A01EB0241C1600168CA8A0168898AFF
:2064500001EB0241016101207047C0465555AAAA10B50446E08E021382EA211292B21648EC
:20647000E38E30F8122082EA0312E286E38E01F00F0282EA233292B230F81220E08E82EAAC
:206490000012E28694F833201219917294F83310491C84F8331094F8330029280ADB204617
:2064B00000F03AFD6068FF2100F0EBF96068FC2100F0E7F910BDC046F09200202DE9F04178
:2064D000054615F8017B90460E461CE0B8F1000F05F101050BD0FF2C09D8022015F8011BCC
:2064F000401E41EA0424F9D101E0042C02D315F8011B00E0394630462246FFF7E1FDA61932
:2065100001E006F8010B15F8010B8742F9D115F8014B002CE9D115F8010B2C78000224189A
:20653000D4D1BDE8F0817047F8B59C46069C174BA3F12C052D6844EA00062E421ED1104FFA
:20655000104E114DBCF1010F09D0BCF1020F0ED14FF00A0CC7F800C031602A6007E04FF027
:20657000090CC7F800C031601104090C2960343B1968084304431C60002000E00120F8BD5F
:2065900030B70F4034B70F4038B70F403CB70F4010B5144A14684FF0A5301060124901F18B
:2065B0000800006800F00300000501F10C031B6803F0030340EA834001F14C031B6803F042
:2065D000030340EA03400B6803F07F030343086800F440701843091F096840EAC170146033
:2065F00010BDC04680B90F4004B80F40530803D3D0F80C350B4302E0D0F80C358B43C0F82C
:206610000C35930803D3D0F810350B4302E0D0F810358B43C0F81035130903D3D0F81C3598
:206630000B4302E0D0F81C358B43C0F81C3522B1D0F8282522EA010102E0D0F828251143E9
:20665000C0F82815704738B51446054600F0A6F81CB12146284600F0A1F8298F284600F01D
:20667000E6FB6868FF2100F00CF924B96868FE2100F007F903E06868F32100F002F94FF691
:20669000FF7028876868002100F0FBF86868FF2100F0F7F86868F42100F0F3F838BDF8B5C7
:2066B0001F4615460E460446FFF7D8F8B4F93C0010B1608FB84201D0002019E001272F8052
:2066D00094F833000019807A308008E0204600F06BFB298826F811002888401C288020468A
:2066F00000F066FC0028F1D1204600F015FC3846F8BD00002DE9F843174688460646114D8E
:2067100000244FF0004904E07069401C7061641CA4B2A74201DC012012E0CDF800907169F5
:2067300038F814200120034600F0F4F808B1002006E028684008FCD228680008E4D30020CB
:20675000BDE8F88310B70F4000BF704708B5FFF7FBFFFEE738B50D4C0546A06820B10C482D
:20677000B0F1FF3F00D080470A4800688047606810B1014628468847206800B180470648B7
:2067900000688047FFF7E2FF38BDC04610930020FFFFFFFF1C9300202093002038B50D4647
:2067B0000446FF2D03D16068FF2100F06AF8208F001380EA251080B20B49228F31F8100074
:2067D00080EA02102087228F05F00F0080EA223080B231F81000218F80EA01102087606810
:2067F000E9B200F04EF838BDF0920020F8B506460F4D104F7388002417E0A00000EBC40008
:20681000321851689068D26852B9AF420BD00A7855F822200346491C08461946904701E038
:20683000FFF7E0F97388641CA4B2A342E5DCF8BDBC940020C4940020F8B51F4615460E46A4
:20685000044600F003FBB6EB051F04D3206B20F02000206304E0206B40F0200020636D085F
:20687000F000B0FBF5F0401C40088109616200F03F00A062E7620020A061204600F0A2FB09
:20689000F8BD38B50D460446E088A188884207D100F0B3FC0121218100F07AFC002013E09A
:2068B00000F0ABFCE168628855546188491C6180E1886288914201D100216180A188491C9E
:2068D000A18000F065FC012038BD000070B5104DA5F12C04246843EA0006264213D10B4C76
:2068F000012A04D0022A04D10822226001E007222260A5F108021160343D296808430343AC
:206910002B60002000E0012070BDC04630B70F403CB70F40F8B5069C0F4EA6F120052D6813
:2069300044EA00072F4213D10A4D012B02D006232B6001E005232B60331D196006F1080157
:206950000A60283E3168084304433460002000E00120F8BD30B70F4030B70F4080B50246D9
:20697000002008801788C7B15288042A15D144224A808880C880094A1368C3F307430B8180
:20699000131D1B68C3F307434B818881106800F0FF00C88107200880012080BD00E00F4073
:2069B00080B50C4920390F686FF35E0777B90A491122091F0A600949091F086008480449DF
:2069D0002838026811430160002000E0012080BD0100008030B70F4034B70F4038B70F409B
:2069F00030B70F4098B500220A8007880FB9104615E04388012B01D0104610E08288084B4B
:206A100012041A60C2881C6812191A6041224A8082888A80C088C88003200880012098BD71
:206A3000F88A00200C4885460C4885446F4607208743BD460A486F460760FFF72AFC00F045
:206A5000F8FB002801D0FFF795FC00F07DFA0120FFF780FEFEE7C046288B002000030000F6
:206A70002493002038B50D460446A08808B9002016E000F0C2FB02B22188E068085C287058
:206A90002088401C2080E0882188884201D100202080A088401EA08090B200F079FB012068
:206AB00038BD00000D4908684FF6FF724263086800F52270026822F0070242F00502026099
:206AD0000A680020C2F8A402096801F522710A6822F0070242F002020A607047A08A00208C
:206AF00070B50A4B0A4A1C68A2420BD00025962D07D2084C54F8256042F825606D1C962D84
:206B1000F8D31A6042F8201070BDC04608ED00E000900020288E002008600648486006487C
:206B300088600648C86006480861064848610648886170471B720020277200202372002030
:206B5000D57100206D6D00201F7200202DE9F0411E4617460D4680467FB1012406E035F88B
:206B70001410404600F063F9641CA4B2A742F6DC2978F2B24046FFF766FD0120BDE8F08123
:206B9000086006484860064888600648C8600648086106484861064888617047E1710020CD
:206BB00005670020337200202B720020377200202F72002010B53C2901D2002012E00446D4
:206BD0000020207404F11200A0600120E0811C2104F1200000F0B7FAE061E1692046FFF78E
:206BF000CFFF204610BD00000A1382EA201293B2084A32F8133083EA011189B200F00F000C
:206C100080EA213080B232F8100080EA011080B27047C046D0920020530803D3D0F8003424
:206C30000B4302E0D0F800348B43C0F80034920803D3D0F82024114303E0D0F8202422EA93
:206C50000101C0F820147047242901D200200EE007490160074941604FF4806101814FF4C6
:206C70000031C160012101614FF000414161704700F8072000F0072010B5094A13684FF04D
:206C9000A53111600749040F51F82440C0F304410004000C8840216881432160136010BDAF
:206CB00080B90F40E487002010B509490A684FF0A5330B60074C030F54F82330C0F30444A7
:206CD0000004000CA0401C68204318600A6010BD80B90F40E48700201CB504466068012205
:206CF000694600F0FFF9BDF8000021890012FFF77BFF208121899DF80000FFF775FF208121
:206D1000BDF800001CBD1CB5044600F081F808B900200DE020464FF480616A46FEF7F8FF5D
:206D300008B9002004E0BDF900000028F2D001201CBD000008B50748012100F076FA064907
:206D500008884FF6FE72824202DD0888401C088008BDC046000003402893002038B50023CE
:206D70000CE0046824882506241204EB154421F813400468A41C04609B1C9BB29A42F0DCAE
:206D9000012038BD10B50C460346FFF72BFB28B9002120460A4600F00FFA04E0D9681A69F8
:206DB000204600F009FA10BD90F834104A1C80F834200918897A0A0290F834104B1C80F8C4
:206DD00034300918887A801880B27047074A030F52F8232012680021C0F304430004000C06
:206DF0009840104200D0012108467047E4870020C368064A1A40C2600A0E026001F0FF0274
:206E10004260C1F3072181607047C046FEFEFFFF38B50446002565812168606800F04AF986
:206E300008B1012002E001202073284638BD38B50C4605461FFA94F1FFF7B0FC04F0FF04AE
:206E500021462846FFF7AAFC38BD000081690909FCD2C16A21F01001C1620249026B114079
:206E700001637047FEFCFFFF08B50346181180B2C0B200F075F8014603F00F0000F070F81E
:206E900008BD81684268914203D001210170818203E0042101700021818270475C2901D2A2
:206EB000002007E000210180418001824FF0FF3242658165704710B50C46406800F0B8F8C2
:206ED00000B2002801D5002001E02070012010BD1C2901D2002006E04FF0FF3181600021E4
:206EF000C1600182018370470449091D0968084201D1002000E001207047C04600B70F40BF
:206F1000044910310968084201D1002000E001207047C04600B70F4000218187018180F83F
:206F3000331080F834104FF6FF71C18601877047442901D2002006E00021C187FF21A0F8A0
:206F50004010FFF7E9BF70470449B1F1FF3F07BF0020011C0868091DFEF77CB9FFFFFFFF90
:206F70000A0F40EA0110024951F82210484070475892002002780121042A03D0007805285C
:206F900000D000210846704710B50C460222FFF743FE0A222146FFF729FB10BD38B50546C7
:206FB000FFF79AFE04042846FFF796FE001938BD90F8332090F834000021824200DD0121AA
:206FD00008467047C16A41F01001C162026B40F20131114301637047034908607047024916
:206FF000091F08607047704720930020B0F93C201AB1408F0880012000E00020704711F0B0
:20701000FF0F00D0826211F47F4F00D0C2627047024A1168084310607047C04600B70F40DD
:2070300002490C310A6810430860704700B70F408169490902D34FF0FF3000E00068704750
:20705000102901D2002001E00021C180704700780021042800D101210846704740F20112F8
:207070001140C2681143C1607047D0F80320C31D08461946FEF7B6BD002101804180818015
:2070900001817047EFF3108072B6704700207047EFF3108062B670470020704700F11A015B
:2070B000C16101210184704701230382416552188265704708B5024610681269904708BD55
:2070D00008B5024610685268904708BD08B5014608688969884708BD08B501460868C9682E
:2070F000884708BD08B5034618685B69984708BD08B5034618689B68984708BD0149C0F8CF
:20711000001C704751E5CC1A01480068C00F70470810004005210170002181827047102936
:2071300001D20020FFE7704708B5FFF7ABFFC0B208BD08B5FFF7ACFFC0B208BD082901D282
:207150000020FFE770471C2901D20020FFE770470C2901D20020FFE7704782699209FCD274
:2071700001607047816841F0010181607047816841F0020181607047C160C280FFF77CBFEA
:2071900041608260C3607047016042608361704708B9FFF7CEBF7047826911438161704711
:2071B0008069C0F3C00070470121C0F8001C7047806800F001007047416082607047416094
:2071D000026070470160012070470160426070474161012070470180826070474068FFF761
:2071F000BCBF4068FFF7DCBF401EFDD170470121C16070470122FFF761B9FFF795BF016010
:207210007047008B704700207047002070470120704700207047002070470020704700203A
:167230007047012070470020704741627047016070470120704798
:2072480000240000B3F08F000144A8A907308AA9CCC4FFF8500296C48F000144A8A9073041
:207268008AA9CCC4FFF8601300240000B1A06919AAA90DA5090A1EA724C6AAA90DA51EA751
:20728800D00A0E9780C60FA76007DE01DD019C5D00240000B4807640B6E38AC11ED48AC11F
:2072A8002BF48AC12BFC8AC11AE400108AC11AE400208AC118E4611900240000B4E01A2FB1
:2072C8008000761F4FFFA338C53AC43C063E7622761F002BA920C322C2241E26761A18B895
:2072E80000240000B740AABDA2BD7620B2BDAABDA2BD27AD565700A03FAD7620B2BDAABD61
:20730800A2BD5AAD27AD196A00240000B640B70C88CAD90192A654A166C6FE8486BE8BBE37
:20732800000688A880A992A6FFC770A7FFC3FA9B00240000B2A0A8047640B21C8F00BDC0C8
:20734800022E7640B130761F02F4A802020083001E421E4476400CE300240000B1E06F1EFB
:207368008AD2DD029A087640B4AE5200600856BF01CAD1008AD27640B8216F032BCA03A5AB
:2073880000240000B4B01A2F8000761F4FFFC438C43AC43CC43E761F002B462F6D039A0373
:2073A8006F38432F6C03D95A00240000B050C5C43E67520060F88F2402149A0228A8803F1A
:2073C800C5C43E67520060F8761F01C01A1D277200240000B54060080200ABA4D5001E42A0
:2073E8007640B33B6F08D0080697ABA41E4283F77640B33BFE82B54F00240000B7909B009E
:20740800F60F1FA6762097A69B00F60F1FA692A87620761F02F8A8320006761F02F84C2721
:2074280000240000B0E0FFFE761F0100CC00F0FF1AA903009600761F01061A0000021A0014
:207448000001761F010CBEFD00240000B1B092A454A566EF6F06D1036F04D1026F02D101EB
:2074680079E356BF04C36F42B60372A7A0A9AEDB00240000B360613E520261265203603ED3
:2074880006D10FF16809D0080691602456BF04C1D00A2B916F3379B200240000B510C4C4FB
:2074A80083C425DEBE010DD50FA661039A006F21C4C483C425EE0DE51ED4C4C483C4359A32
:2074C80000240000B52025FE0DF51EE4020807C41EA6020907C483A925C583A60DC51EF4F2
:2074E800020A07C41EA6C0D200240000B750565700A03FADAAAB565D00A6A9A27620C14162
:20750800C0420644CFAACEABFF5A06427620B17B00240000B450761F003019011E0A761FFE
:207528000030020019011E12761F00302B0E2B0F761F00302B1669B600240000B260020131
:207548001E1ED00806927640B6839A006F2DD00806927640B6945200610B0202761FA114D6
:2075680000240000B1D09B00D008929260029B01D009979206F261048AF27640B3B956BFB7
:207588007ECB56BF01C34B8300240000B04001C056BF021B761A8F24021E9A03FF69C5C4FB
:2075A8003E6776228F2402149A019B08FF69272D00240000B3300FA66903D4006F0702004F
:2075C8001ED41EE42BC4D00A2B9400060644A0D41EE4000606E41FAD00240000B580FF014C
:2075E80062272D4236A037A1FF4F07ABFF5A2D4136A007AB37A105AB09406304FF4013659F
:2076080000240000B3700201564100F18AF1D00892C4FFC75CA906917640B672D0081E9120
:207628008AF1D008CCC488300008000000000040B5B0934800240000B8509600761F0106C1
:207648001A0000021A000001761F010CCC00FFF0500A9600761AF60777002BBF002400008C
:20766800B7A0A8300006000676083B3092BE000696BD76000006761B2942561676256F0047
:207688009A01872800100000B8609A00FF690006F4ACEE240000F7B000240000B7106104BF
:2076A8009CFFF7A924845300611027462BAA565700A7A9A72484DF0128A9FFFEF7A963EEEE
:2076C80000240000B6807640B6610006761F0138980699070006FF5A761F01380608CEABB5
:2076E800CFAAFF5860034A0100240000B0F0CC00FFF0500A9600761AF6077700FF69000623
:207708003B10761F00331820FFFE2B222B2408B000240000B1102B2F2B312B332B352B370A
:207728002B391A2000012821FFFF2910FF6900068F000D0076226D1900240000B80000100E
:20774800400000102000001000000010FFFFBDFA00000001FFFEBDFC00000000000022D132
:2077680000240000B7F0001380000013000000138000001200000012800000110000001137
:207788008000001060001BF600240000B5000006A0C40006C4C4290183C428AB555528AA4F
:2077A800AAAA25CE0DC50FAB61039A006F2AE36000240000B2B0B1428F000D1E761F02F456
:2077C8008F40A000A842A0A98A027640B148FE840006FE028F00B22B00240000B310B436FF
:2077E8008F0F4240B2AB0200F61F561700A4A9A97640B7701EA68F00BE6C9A0028A8C8FFFF
:2078080000240000B4C09A036F34442F6C039A006F30520861039A036F2C290125C50DCD89
:20782800FF5A25D50DDD762300240000B1F0D11056BF43CB79D356BF02C36F08D00956BF16
:20784800019256BF50CB56BF01C3D00200C07FBB00240000B06001001A1D02001A1D04000F
:207868001A1D08001A1D10001A1D20001A1D40001A1D80001A19706B00240000B4005005BA
:2078880096C48F000162A8A907308AA9C2C48F000144A8A907308AA9CCC4FFF85002078E56
:2078A80000240000B65058A98F00BE00560304A6709488A993A6CCA7000FFFDB70A858A962
:2078C800560304A67094524400240000B5C028A9B7B228A800000901611B76C0B7B229040E
:2078E8006F0F9B0024A9DF016C04290424A81A9400240000B3B07640B35CDA0192A154A253
:2079080066FA00C0B783000656BF05C4D00A2B9400069A000006F04800240000B8200000AE
:207928007622761F01001A2400011A200003761F01061800FFFD1800FFFE28A9E10038DA0C
:2079480000240000B4F0452F6C039A006F029A03FF690006D00C929400061EA6020A0FA6D1
:207968006903D4006F01812800240000B7E09B64350C86D331CDA00A3C8EBDBD384FFFE4FC
:20798800BE400000E0000013C0000013A000F32C00240000B1900FAB6027D02A06A60F926F
:2079A80068215DC5D02CDD830DA50F92661BD100D50092A454A5ACAB00240000B780FF96C8
:2079C800CBAA000682BE86BE8BBE762027AD565D00A03FAD82BE86BE8BBE762097A673ECAF
:2079E80000240000B4402B062B071A0400101A0400200200761F02F91E2E8F000C08A81C53
:207A08008F000C10A82413CC00240000B6D0C5303E67761F02F7C53E06A7610392A13E674A
:207A2800761F02F7063C61031EA73E677640747F00240000B6C0923A610D28ABFFFF28AA80
:207A4800FFFF28A9FFFF28A8FFFF0FAB6103767FFFFF761F02F85F6F00240000B32042C814
:207A68001E4206A67640B477761F00301804FFEF7640B2987640B2BE6FFE1EA6020CACC66B
:207A880000240000B810FFFEBDFE000000000000FFFEBE300000B7A20000FFFEBE32000009
:207AA800B7A200000000B98300240000B180690492A45220683A56BF63CB06A697D37EDB6B
:207AC80076C0FFFD92A42BAA9EC527A906A708BB00240000B720248408AA0001FFD0EDF6B6
:207AE800000628ABFFFF28AAFFFF28A9FFFF28A8FFFF0FAB6004C55600240000B250069243
:207B08007640B6885200610606F2761F01380F1861039A006F3992410EA90F1A67090740B3
:207B280000240000B66000061EA628AC001C562229018F40BE10560301A9560100A506A65F
:207B4800FF33AFA470C59A5200240000B59008A70001FF5A93A7651908A8FF016311A9A9D7
:207B6800FF46917F5BA85AA925A695A7FF96BBEB00240000B6108AA992C461039A026F027C
:207B88009A00B60093CC56B001A794A7611F520161155202610B256E00240000B020C5C42C
:207BA8003E678F2402169A019B08C5C43E67520060F98F2402169A0228A88000C5C4AE1335
:207BC80000240000B4D01EA725E50DED1EA625F50DFD7622A920C322C2241E26761A452FD0
:207BE8006C039A006F16C96100240000B1209A00528063078F40B7AAA0849C01528064FDD6
:207C0800761A761F00331A200001FF690006E3BA00240000B67071CD000680A41EA692A70F
:207C2800FFC3900F5CA906A67640B6611EA6CCA7000F5CA906A68D2700240000B38000FF5C
:207C48005CA906917640B672D0081E916F1B8AF192C4610D06D10FF1680656BF05C104EE40
:207C680000240000B5B028ADBB00FF69561F5616561A2940761F00002902761B7640B7AF54
:207C8800520061427622A2A100240000B6E0B6BA8BBE00062902FF58611B5CA8917F08A8D1
:207CA8000080FF362FA893A4FFD65CA891FF071500240000B0303E67520060F8761AFF6929
:207CC8007640B0F97640B11D7640B03E7640B0A000067622761F472400240000B090040009
:207CE8001A1C04001A1C01001A1C00101A1C10001A1C00011A1C0004761AFF690006510DB2
:207D080000240000B0C01E3A761F017E1E021E041E121E141E221E241E321E34761F017C81
:207D28001E02761F01BEB66200240000B010FF69C5C43E67520060F88F2402149A0228A856
:207D48008000C5C43E67520060F88F24022093B400240000B300B2A961F18F00BD12020EB5
:207D68007640B49C761F02F4A80002001E42B2A97640B4AC7640ED6F00240000B6A0761FCE
:207D88000138980099010006761F01389802990300061EA68F03F800A8A90FA666066AB77F
:207DA80000240000B420BE00CCC4FFF8500596C48F000152A8A907308AA9C2C48F000144D8
:207DC800A8A907308AA9744500240000B5D0DF011EA6F7A1248606A781A109011EA724A92D
:207DE8006303FF5C3B0459A9DF010009FFECBD8D00240000B7D076DC13046B6B17C54DB296
:207E08001A8650051E47EDB82608F00F22C9D6D62F8ACB612B4BF67000240000B730BE000D
:207E2800D4006F098AA928A9FFFF88C428A8FFFF09028AA992A67640B2E60006B2BD6D111B
:207E480000240000B2C0BD80761F02F48F40BD819A28A8428A047640B24752006119761F65
:207E680002F52B008F00D6CC00240000B24006927640B6A09A0100C0B7830006D00200C0C0
:207E8800B743824C96418BA586A42BC3D008757100240000B4700020761F02F902001E1EFF
:207EA8001E260006B2BDFE028BA4C4481EE1C2F1C2427640B556F16F00240000B5705DA8A1
:207EC80093A471A518A8010097A618A400FF18A500FFDCFF92A494A596A7642F08A9B858FD
:207EE80000240000B5A00CA295A3FE8282BE86BE8BBE8EBE000693A6FF9608A87F7F6FF69B
:207F0800FF2000006FF3B0CA00240000B390D00A2B916F100201564100F16F0C0200D00802
:207F280019011E9156BF03C16F0506E11EF1407500240000B83028A805F50FC4681728A97F
:207F4800870028A803930FC46809761F0100CC00F0FF1AA90100F42100240000B770FF581C
:207F68006111D49D62050AA42901FF406F03F61FFF7418A83FFF2901FF462FA893A419B258
:207F880000240000B6205203602106E41E4206F41E4406D47640B70C6F1806E41E4206F445
:207FA8001E4406D47640EB8300240000B200B78700061EA6020C0FA66903D4006F148F4323
:207FC800FC00A0C48F43F800A0D428E40400F3E100240000B3C0021A761F02F707308AA96C
:207FE8008F40FFFFA0C48F000144A8A907308AA9BE00CCC4FFF8C6FB00240000B6B006A67D
:20800800FF30FF1F40006F0506A6FF30FF1F3FFE000677006F00B2BD761F02F759A9DB63F8
:2080280000240000B0A076220200761F017E1E061E081E161E181E261E281E361E38761F99
:20804800017C1E06761F2DB200240000B41096C49A000006021A761F02F707308AA98F403E
:20806800FFFFA0C48F000144A8A907308AA9C6C000240000B7C0B16BC18CD1ADE1CEF1EF70
:20808800FFE0BE100000000000001DB704C13B6E098226D90D438FBD00240000B17092CD1F
:2080A80096D356BF11DB56BF03C3FFEF0088290125D50DDD1EA6D40092C59CFD54A45350CC
:2080C80000240000B5F0FFFF0901610E76FFFFFF6F06DF01C3BD1EA73E67C5BE24A9DF0176
:2080E80024A8FF5860F7D91B00240000B430CCC4FFF8500296C49A0000068F000C00761FFF
:2081080002F9A82C0200761F003019011E0226AD00240000B150D02C1E94000692C400067F
:20812800D00200C0B743824C86A42BC392C5FFE100A292CD520376F200240000B2D0BD402D
:208148008F40BD80761F02F4A8428A027640B155761F02F592006108761F02F48F401787CF
:2081680000240000B07001001A1D00011A1D00021A1D00041A1D00081A1D00101A1D002029
:208188001A1D00401A1DB4B400240000B490FBFF8AC118E4F7FF8AC11AE4400002001ED1A8
:2081A800FE828BBE00061EA6020E0FA66903097700240000B56008A800801E4293A4FFD69E
:2081C8005CA8064E613B5DA8917F08A8008059A858A993A5FFD688D900240000B6909A00EA
:2081E8006F029A010006FF5A761F01380604CEABCFAAFF5860039A006F029A010006C0A17B
:2082080000240000B3E096C48F000144A8A907308AA9CCC4FFF8500596C48F000160A8A93F
:2082280007308AA9C2C418D100240000B5E028A9FFFF28A8FFFF090161058F3FFFFF764015
:20824800B604761A7640B7B128A9FFFF28A8465C00240000B6F008A8FF81640F08A8FFE26F
:20826800620F6106FF5D2DA893AA56226F0293AA48A46C02FF54D99800240000B2808AC2CA
:2082880092949691D80192A054C368FA0200761F01381E1ED008A392D00A0692CAAB8B1367
:2082A80000240000B2F08F020001761F0138060840A96C0AA8A90F1860078B1AB21E1A06AF
:2082C80000011A0780004BC400240000B23054A069088AD292939694D80192A154A066FA6F
:2082E80006F2761F01381E100EA11E12D008A33400240000B3A056BF02C18BBE000600C096
:20830800B73F82A459A9D00A9293610CD20092A154A269088AA3D10F00240000B0003B1033
:2083280076260000762F00008F24021E9A03FF69C5C43E6776228F2402149A019B0884AF1C
:2083480000240000B3400FD4610756BF01C4D00A56BF01946F0556BF04C4D00A2B94000665
:208368009A0193C45304B03F00240000B0D01E02761AFF6900067622761F01001A2400018E
:208388001A200003761F01061800FFFD1800173E00240000B1301EA6022E0FA66903D4008D
:2083A8006F0C2BC42BCCD0082B940200D02A19011E940200D02C300500240000B4602B1748
:2083C800761F00301A0C0010761F00301A140010761F00301A0C0020761F00301A1448DF72
:2083E80000240000B1002B262B282B2A2B2C2B2E2B302B322B342B362B382B232B252B272C
:208408002B292B2B2B2D403300240000B84096006F10761F0100CC00F0FF1AA90200960002
:208428006F08761F0100CC00F0FF1AA903007E6500240000B2E0BD418A047640B21DFE827C
:208448000006B2BDFE027640B0008F010000A8A97640B6A0D10034FC00240000B760994136
:2084680098420644CBAACAABFF5A06427620F341F242064471AA70ABFF5A064276209C33C1
:2084880000240000B630B70C6F1006E41E4206F41E4406D47640B70C6F0806E41E4206F4D4
:2084A8001E4406D476404D3100240000B2108F420000A0F4D00802011E949A0028A8800082
:2084C800D00A1E940006000600C0B73F59A9D77B00240000B08000801A1900011A190002B5
:2084E8001A1900041A1900081A2008001A2001001A2002001A20D75500240000B1401E941C
:208508000006C4440646A0D4C2E41EF400061EA60644D00856BF0194D02AC29407A64F8665
:2085280000240000B4A0D4006F0A020019011EE402001EF4D0082B94D00C2B9400061EC422
:208548000006761F002BA4D700240000B7000006FF200000000628A87FFF28A9FFFF48A4C3
:208568006CF7090100061EA78A4406465200BEDD00240000B290CBAA7640B6839A01D0027D
:2085880000C0B7870006FE048F00BD06020C7640B202761F02F4C07A00240000B6007640AE
:2085A800B7267640B6BCB2BDAABDFE0486A488CAD1006F392901560303A107A209029F1D4A
:2085C80000240000B0B001BE1E061E361E38761F017E1E0A1E1A1E2A1E3A761F017C1E0A34
:2085E800761F01BE1E0A061B00240000B350610593C4530561029A0000069A0093C453044F
:2086080060029A010006B2BD8BA492C152014C3E00240000B7B000060006FFF0BE0000003D
:208628000000102120423063408450A560C670E781089129A14A417B00240000B530020BD6
:2086480007C483A925C583A6D0080DC51E949A010006FE02A0ACC5A47640B5035200B0DF07
:2086680000240000B27001381E1ED00806927640B6839A006F1D761F0138061A96C3D0009B
:2086880092A054C36708173C00240000B160FFE100815210FFE10094523E6168D009929205
:2086A8005201616092CD5223610B56BF7FCBA56500240000B1C00DA71EA7AAA927CF0DA4ED
:2086C8001EA7D00A3F97DC016FB4A2427640AAC36F3156BF01C2F42800240000B22082A565
:2086E80086A4D00806927640B694520061039A006F1B92A154E269039A006F16D0006F804B
:2087080000240000B3D0500596C48F000152A8A907308AA9C2C48F000144A8A907308AA949
:20872800CCC4FFF85002369100240000B550000692D40006C5E43E6700063ABDB2BDAABDD5
:20874800A2BDFE022901FF5861455CA8917F5B5900001D0F004000400080054000500040C2
:20876800009005400060004000A005400070004000B005400040024000C0054000500240D9
:2087880000D005400060024000E005400070024000F0054000D0034000000640001006405F
:2087A800001006400020064000200640003006400030064000400640004006400050064001
:2087C8000050064000600640006006400070064000700640008006400080064000E10F4087
:1087E80004E10F4008E10F400CE10F4008E60F409C
:208E2800288E00200150002043610020335900203B5E00203B5E00203B5E00200000000048
:208E48000000000000000000000000003B5E00203B5E0020000000003B5E00203B5E002026
:208E68003B5E00203B5E00203B5E00203B5E00203B5E00203B5E00203B5E00203B5E002022
:208E88003B5E00203B5E00203B5E00203B5E00203B5E00203B5E00203B5E00203B5E002002
:208EA8003B5E00203B5E00203B5E00203B5E00203B5E00203B5E00203B5E00203B5E0020E2
:208EC8003B5E00203B5E00203B5E00203B5E00203B5E00203B5E00203B5E00203B5E0020C2
:208EE8003B5E00203B5E00203B5E00203B5E00203B5E00203B5E00203B5E00203B5E0020A2
:208F08003B5E00203B5E00203B5E00203B5E00203B5E00203B5E00203B5E00203B5E002081
:208F28003B5E00203B5E00203B5E00203B5E00203B5E00203B5E00203B5E00203B5E002061
:208F48003B5E00203B5E00203B5E00203B5E00203B5E00203B5E00203B5E00203B5E002041
:208F68003B5E00203B5E00203B5E00203B5E00203B5E00203B5E00203B5E00203B5E002021
:208F88003B5E00203B5E00203B5E00203B5E00203B5E00203B5E00203B5E00203B5E002001
:208FA8003B5E00203B5E00203B5E00203B5E00203B5E00203B5E00203B5E00203B5E0020E1
:108FC8003B5E00203B5E00203B5E00203B5E0020B5
:20932C00F8B5224DD5F800C04FF0A5312960234901F148031A6842F001021A6001F14003CB
:20934C001A6842F003021A60194C00222260194E03689E4211D3184B07685E00BE4208D324
:20936C000068834201D30A600AE04FF48070086006E04FF40070086002E04FF440700860B3
:20938C00206840F001002060206840F0020020600B490A200860C5F800C01046072803D291
:2093AC0000BF401C0728FBD31046F8BD80B90F4000A30F40000E2707005A620200A00F401B
:0493CC0000A60F40A8
:2093D0000002020400B71DC1046E3B8209D926430DDC7604136B6BC517B24D861A05504703
:2093F0001EB8ED08260FF0C922D6D68A2F61CB4B2B649B0C35D386CD310AA08E3CBDBD4FA7
:209410003800802F0000002F0000802E0000002E0000002C0000002A0000002800000026A6
:2094300000000024000000220000802100000021000080200000002000000021104220635E
:20945000308440A550C660E770088129914AA16BB18CC1ADD1CEE1EFF100002110422063FC
:20947000308440A550C660E770088129914AA16BB18CC1ADD1CEE1EFF102080001000000C7
:20949000F76F0020F76F002002060002000000000001010003300001000000000000000070
:2094B000000101000258000100000000057200207B700020D093002058920020A0940020BC
:0C94D000F8870020B094002000900020DD
:00000001FF
